{
  "_format": "hh-sol-artifact-1",
  "contractName": "EntryPoint",
  "sourceName": "contracts/EntryPoint.sol",
  "abi": [
    {
      "inputs": [
        {
          "internalType": "contract IVerifier",
          "name": "_verifier",
          "type": "address"
        }
      ],
      "stateMutability": "nonpayable",
      "type": "constructor"
    },
    {
      "inputs": [
        {
          "internalType": "uint256",
          "name": "preOpGas",
          "type": "uint256"
        },
        {
          "internalType": "uint256",
          "name": "paid",
          "type": "uint256"
        },
        {
          "internalType": "uint64",
          "name": "validAfter",
          "type": "uint64"
        },
        {
          "internalType": "uint64",
          "name": "validBefore",
          "type": "uint64"
        }
      ],
      "name": "ExecutionResult",
      "type": "error"
    },
    {
      "inputs": [
        {
          "internalType": "uint256",
          "name": "opIndex",
          "type": "uint256"
        },
        {
          "internalType": "address",
          "name": "paymaster",
          "type": "address"
        },
        {
          "internalType": "string",
          "name": "reason",
          "type": "string"
        }
      ],
      "name": "FailedOp",
      "type": "error"
    },
    {
      "inputs": [
        {
          "internalType": "address",
          "name": "sender",
          "type": "address"
        }
      ],
      "name": "SenderAddressResult",
      "type": "error"
    },
    {
      "inputs": [
        {
          "components": [
            {
              "internalType": "uint256",
              "name": "preOpGas",
              "type": "uint256"
            },
            {
              "internalType": "uint256",
              "name": "prefund",
              "type": "uint256"
            },
            {
              "internalType": "bool",
              "name": "sigFailed",
              "type": "bool"
            },
            {
              "internalType": "uint64",
              "name": "validAfter",
              "type": "uint64"
            },
            {
              "internalType": "uint64",
              "name": "validUntil",
              "type": "uint64"
            },
            {
              "internalType": "bytes",
              "name": "paymasterContext",
              "type": "bytes"
            }
          ],
          "internalType": "struct IEntryPoint.ReturnInfo",
          "name": "returnInfo",
          "type": "tuple"
        },
        {
          "components": [
            {
              "internalType": "uint256",
              "name": "stake",
              "type": "uint256"
            },
            {
              "internalType": "uint256",
              "name": "unstakeDelaySec",
              "type": "uint256"
            }
          ],
          "internalType": "struct IStakeManager.StakeInfo",
          "name": "senderInfo",
          "type": "tuple"
        },
        {
          "components": [
            {
              "internalType": "uint256",
              "name": "stake",
              "type": "uint256"
            },
            {
              "internalType": "uint256",
              "name": "unstakeDelaySec",
              "type": "uint256"
            }
          ],
          "internalType": "struct IStakeManager.StakeInfo",
          "name": "factoryInfo",
          "type": "tuple"
        },
        {
          "components": [
            {
              "internalType": "uint256",
              "name": "stake",
              "type": "uint256"
            },
            {
              "internalType": "uint256",
              "name": "unstakeDelaySec",
              "type": "uint256"
            }
          ],
          "internalType": "struct IStakeManager.StakeInfo",
          "name": "paymasterInfo",
          "type": "tuple"
        }
      ],
      "name": "ValidationResult",
      "type": "error"
    },
    {
      "anonymous": false,
      "inputs": [
        {
          "indexed": true,
          "internalType": "bytes32",
          "name": "userOpHash",
          "type": "bytes32"
        },
        {
          "indexed": true,
          "internalType": "address",
          "name": "sender",
          "type": "address"
        },
        {
          "indexed": false,
          "internalType": "address",
          "name": "factory",
          "type": "address"
        },
        {
          "indexed": false,
          "internalType": "address",
          "name": "paymaster",
          "type": "address"
        }
      ],
      "name": "AccountDeployed",
      "type": "event"
    },
    {
      "anonymous": false,
      "inputs": [
        {
          "indexed": true,
          "internalType": "address",
          "name": "account",
          "type": "address"
        },
        {
          "indexed": false,
          "internalType": "uint256",
          "name": "totalDeposit",
          "type": "uint256"
        }
      ],
      "name": "Deposited",
      "type": "event"
    },
    {
      "anonymous": false,
      "inputs": [
        {
          "indexed": true,
          "internalType": "address",
          "name": "account",
          "type": "address"
        },
        {
          "indexed": false,
          "internalType": "uint256",
          "name": "totalStaked",
          "type": "uint256"
        },
        {
          "indexed": false,
          "internalType": "uint256",
          "name": "withdrawTime",
          "type": "uint256"
        }
      ],
      "name": "StakeLocked",
      "type": "event"
    },
    {
      "anonymous": false,
      "inputs": [
        {
          "indexed": true,
          "internalType": "address",
          "name": "account",
          "type": "address"
        },
        {
          "indexed": false,
          "internalType": "uint256",
          "name": "withdrawTime",
          "type": "uint256"
        }
      ],
      "name": "StakeUnlocked",
      "type": "event"
    },
    {
      "anonymous": false,
      "inputs": [
        {
          "indexed": true,
          "internalType": "address",
          "name": "account",
          "type": "address"
        },
        {
          "indexed": false,
          "internalType": "address",
          "name": "withdrawAddress",
          "type": "address"
        },
        {
          "indexed": false,
          "internalType": "uint256",
          "name": "amount",
          "type": "uint256"
        }
      ],
      "name": "StakeWithdrawn",
      "type": "event"
    },
    {
      "anonymous": false,
      "inputs": [
        {
          "indexed": true,
          "internalType": "bytes32",
          "name": "userOpHash",
          "type": "bytes32"
        },
        {
          "indexed": true,
          "internalType": "address",
          "name": "sender",
          "type": "address"
        },
        {
          "indexed": true,
          "internalType": "address",
          "name": "paymaster",
          "type": "address"
        },
        {
          "indexed": false,
          "internalType": "uint256",
          "name": "nonce",
          "type": "uint256"
        },
        {
          "indexed": false,
          "internalType": "bool",
          "name": "success",
          "type": "bool"
        },
        {
          "indexed": false,
          "internalType": "uint256",
          "name": "actualGasCost",
          "type": "uint256"
        },
        {
          "indexed": false,
          "internalType": "uint256",
          "name": "actualGasUsed",
          "type": "uint256"
        }
      ],
      "name": "UserOperationEvent",
      "type": "event"
    },
    {
      "anonymous": false,
      "inputs": [
        {
          "indexed": true,
          "internalType": "bytes32",
          "name": "userOpsUnionHash",
          "type": "bytes32"
        },
        {
          "indexed": false,
          "internalType": "bytes32[]",
          "name": "userOpsHash",
          "type": "bytes32[]"
        },
        {
          "indexed": false,
          "internalType": "address[]",
          "name": "senders",
          "type": "address[]"
        },
        {
          "indexed": false,
          "internalType": "uint256[]",
          "name": "fees",
          "type": "uint256[]"
        }
      ],
      "name": "UserOperationExecuteFeeLog",
      "type": "event"
    },
    {
      "anonymous": false,
      "inputs": [
        {
          "indexed": true,
          "internalType": "bytes32",
          "name": "userOpHash",
          "type": "bytes32"
        },
        {
          "indexed": true,
          "internalType": "address",
          "name": "sender",
          "type": "address"
        },
        {
          "indexed": false,
          "internalType": "uint256",
          "name": "nonce",
          "type": "uint256"
        },
        {
          "indexed": false,
          "internalType": "bytes",
          "name": "revertReason",
          "type": "bytes"
        }
      ],
      "name": "UserOperationRevertReason",
      "type": "event"
    },
    {
      "anonymous": false,
      "inputs": [
        {
          "indexed": true,
          "internalType": "address",
          "name": "account",
          "type": "address"
        },
        {
          "indexed": false,
          "internalType": "address",
          "name": "withdrawAddress",
          "type": "address"
        },
        {
          "indexed": false,
          "internalType": "uint256",
          "name": "amount",
          "type": "uint256"
        }
      ],
      "name": "Withdrawn",
      "type": "event"
    },
    {
      "inputs": [],
      "name": "SIG_VALIDATION_FAILED",
      "outputs": [
        {
          "internalType": "uint256",
          "name": "",
          "type": "uint256"
        }
      ],
      "stateMutability": "view",
      "type": "function"
    },
    {
      "inputs": [],
      "name": "_curStateRoot",
      "outputs": [
        {
          "internalType": "bytes32",
          "name": "",
          "type": "bytes32"
        }
      ],
      "stateMutability": "view",
      "type": "function"
    },
    {
      "inputs": [],
      "name": "_oldStateRoot",
      "outputs": [
        {
          "internalType": "bytes32",
          "name": "",
          "type": "bytes32"
        }
      ],
      "stateMutability": "view",
      "type": "function"
    },
    {
      "inputs": [
        {
          "internalType": "uint32",
          "name": "_unstakeDelaySec",
          "type": "uint32"
        }
      ],
      "name": "addStake",
      "outputs": [],
      "stateMutability": "payable",
      "type": "function"
    },
    {
      "inputs": [
        {
          "internalType": "address",
          "name": "account",
          "type": "address"
        }
      ],
      "name": "balanceOf",
      "outputs": [
        {
          "internalType": "uint256",
          "name": "",
          "type": "uint256"
        }
      ],
      "stateMutability": "view",
      "type": "function"
    },
    {
      "inputs": [
        {
          "components": [
            {
              "internalType": "address",
              "name": "sender",
              "type": "address"
            },
            {
              "internalType": "uint256",
              "name": "nonce",
              "type": "uint256"
            },
            {
              "internalType": "bytes",
              "name": "initCode",
              "type": "bytes"
            },
            {
              "internalType": "bytes",
              "name": "callData",
              "type": "bytes"
            },
            {
              "internalType": "uint256",
              "name": "callGasLimit",
              "type": "uint256"
            },
            {
              "internalType": "uint256",
              "name": "verificationGasLimit",
              "type": "uint256"
            },
            {
              "internalType": "uint256",
              "name": "preVerificationGas",
              "type": "uint256"
            },
            {
              "internalType": "uint256",
              "name": "maxFeePerGas",
              "type": "uint256"
            },
            {
              "internalType": "uint256",
              "name": "maxPriorityFeePerGas",
              "type": "uint256"
            },
            {
              "internalType": "bytes",
              "name": "paymasterAndData",
              "type": "bytes"
            },
            {
              "internalType": "bytes",
              "name": "signature",
              "type": "bytes"
            }
          ],
          "internalType": "struct UserOperation[]",
          "name": "ops",
          "type": "tuple[]"
        }
      ],
      "name": "calculateUserOpHashesSum",
      "outputs": [
        {
          "internalType": "uint256",
          "name": "",
          "type": "uint256"
        }
      ],
      "stateMutability": "pure",
      "type": "function"
    },
    {
      "inputs": [
        {
          "internalType": "address",
          "name": "account",
          "type": "address"
        }
      ],
      "name": "depositTo",
      "outputs": [],
      "stateMutability": "payable",
      "type": "function"
    },
    {
      "inputs": [
        {
          "internalType": "address",
          "name": "",
          "type": "address"
        }
      ],
      "name": "deposits",
      "outputs": [
        {
          "internalType": "uint112",
          "name": "deposit",
          "type": "uint112"
        },
        {
          "internalType": "bool",
          "name": "staked",
          "type": "bool"
        },
        {
          "internalType": "uint112",
          "name": "stake",
          "type": "uint112"
        },
        {
          "internalType": "uint32",
          "name": "unstakeDelaySec",
          "type": "uint32"
        },
        {
          "internalType": "uint64",
          "name": "withdrawTime",
          "type": "uint64"
        }
      ],
      "stateMutability": "view",
      "type": "function"
    },
    {
      "inputs": [
        {
          "internalType": "address",
          "name": "account",
          "type": "address"
        }
      ],
      "name": "getDepositInfo",
      "outputs": [
        {
          "components": [
            {
              "internalType": "uint112",
              "name": "deposit",
              "type": "uint112"
            },
            {
              "internalType": "bool",
              "name": "staked",
              "type": "bool"
            },
            {
              "internalType": "uint112",
              "name": "stake",
              "type": "uint112"
            },
            {
              "internalType": "uint32",
              "name": "unstakeDelaySec",
              "type": "uint32"
            },
            {
              "internalType": "uint64",
              "name": "withdrawTime",
              "type": "uint64"
            }
          ],
          "internalType": "struct IStakeManager.DepositInfo",
          "name": "info",
          "type": "tuple"
        }
      ],
      "stateMutability": "view",
      "type": "function"
    },
    {
      "inputs": [
        {
          "internalType": "bytes",
          "name": "initCode",
          "type": "bytes"
        }
      ],
      "name": "getSenderAddress",
      "outputs": [],
      "stateMutability": "nonpayable",
      "type": "function"
    },
    {
      "inputs": [
        {
          "components": [
            {
              "internalType": "address",
              "name": "sender",
              "type": "address"
            },
            {
              "internalType": "uint256",
              "name": "nonce",
              "type": "uint256"
            },
            {
              "internalType": "bytes",
              "name": "initCode",
              "type": "bytes"
            },
            {
              "internalType": "bytes",
              "name": "callData",
              "type": "bytes"
            },
            {
              "internalType": "uint256",
              "name": "callGasLimit",
              "type": "uint256"
            },
            {
              "internalType": "uint256",
              "name": "verificationGasLimit",
              "type": "uint256"
            },
            {
              "internalType": "uint256",
              "name": "preVerificationGas",
              "type": "uint256"
            },
            {
              "internalType": "uint256",
              "name": "maxFeePerGas",
              "type": "uint256"
            },
            {
              "internalType": "uint256",
              "name": "maxPriorityFeePerGas",
              "type": "uint256"
            },
            {
              "internalType": "bytes",
              "name": "paymasterAndData",
              "type": "bytes"
            },
            {
              "internalType": "bytes",
              "name": "signature",
              "type": "bytes"
            }
          ],
          "internalType": "struct UserOperation",
          "name": "userOp",
          "type": "tuple"
        }
      ],
      "name": "getUserOpHash",
      "outputs": [
        {
          "internalType": "bytes32",
          "name": "",
          "type": "bytes32"
        }
      ],
      "stateMutability": "view",
      "type": "function"
    },
    {
      "inputs": [
        {
          "components": [
            {
              "internalType": "address",
              "name": "sender",
              "type": "address"
            },
            {
              "internalType": "uint256",
              "name": "nonce",
              "type": "uint256"
            },
            {
              "internalType": "bytes",
              "name": "initCode",
              "type": "bytes"
            },
            {
              "internalType": "bytes",
              "name": "callData",
              "type": "bytes"
            },
            {
              "internalType": "uint256",
              "name": "callGasLimit",
              "type": "uint256"
            },
            {
              "internalType": "uint256",
              "name": "verificationGasLimit",
              "type": "uint256"
            },
            {
              "internalType": "uint256",
              "name": "preVerificationGas",
              "type": "uint256"
            },
            {
              "internalType": "uint256",
              "name": "maxFeePerGas",
              "type": "uint256"
            },
            {
              "internalType": "uint256",
              "name": "maxPriorityFeePerGas",
              "type": "uint256"
            },
            {
              "internalType": "bytes",
              "name": "paymasterAndData",
              "type": "bytes"
            },
            {
              "internalType": "bytes",
              "name": "signature",
              "type": "bytes"
            }
          ],
          "internalType": "struct UserOperation[]",
          "name": "ops",
          "type": "tuple[]"
        },
        {
          "internalType": "bytes",
          "name": "proof",
          "type": "bytes"
        },
        {
          "internalType": "uint256[]",
          "name": "pubSignals",
          "type": "uint256[]"
        },
        {
          "internalType": "address payable",
          "name": "beneficiary",
          "type": "address"
        }
      ],
      "name": "handleOps",
      "outputs": [],
      "stateMutability": "nonpayable",
      "type": "function"
    },
    {
      "inputs": [
        {
          "internalType": "bytes",
          "name": "callData",
          "type": "bytes"
        },
        {
          "components": [
            {
              "components": [
                {
                  "internalType": "address",
                  "name": "sender",
                  "type": "address"
                },
                {
                  "internalType": "uint256",
                  "name": "nonce",
                  "type": "uint256"
                },
                {
                  "internalType": "uint256",
                  "name": "callGasLimit",
                  "type": "uint256"
                },
                {
                  "internalType": "uint256",
                  "name": "verificationGasLimit",
                  "type": "uint256"
                },
                {
                  "internalType": "uint256",
                  "name": "preVerificationGas",
                  "type": "uint256"
                },
                {
                  "internalType": "address",
                  "name": "paymaster",
                  "type": "address"
                },
                {
                  "internalType": "uint256",
                  "name": "maxFeePerGas",
                  "type": "uint256"
                },
                {
                  "internalType": "uint256",
                  "name": "maxPriorityFeePerGas",
                  "type": "uint256"
                }
              ],
              "internalType": "struct EntryPoint.MemoryUserOp",
              "name": "mUserOp",
              "type": "tuple"
            },
            {
              "internalType": "bytes32",
              "name": "userOpHash",
              "type": "bytes32"
            },
            {
              "internalType": "uint256",
              "name": "prefund",
              "type": "uint256"
            },
            {
              "internalType": "uint256",
              "name": "contextOffset",
              "type": "uint256"
            },
            {
              "internalType": "uint256",
              "name": "preOpGas",
              "type": "uint256"
            }
          ],
          "internalType": "struct EntryPoint.UserOpInfo",
          "name": "opInfo",
          "type": "tuple"
        },
        {
          "internalType": "bytes",
          "name": "context",
          "type": "bytes"
        }
      ],
      "name": "innerHandleOp",
      "outputs": [
        {
          "internalType": "uint256",
          "name": "actualGasCost",
          "type": "uint256"
        }
      ],
      "stateMutability": "nonpayable",
      "type": "function"
    },
    {
      "inputs": [
        {
          "components": [
            {
              "internalType": "address",
              "name": "sender",
              "type": "address"
            },
            {
              "internalType": "uint256",
              "name": "nonce",
              "type": "uint256"
            },
            {
              "internalType": "bytes",
              "name": "initCode",
              "type": "bytes"
            },
            {
              "internalType": "bytes",
              "name": "callData",
              "type": "bytes"
            },
            {
              "internalType": "uint256",
              "name": "callGasLimit",
              "type": "uint256"
            },
            {
              "internalType": "uint256",
              "name": "verificationGasLimit",
              "type": "uint256"
            },
            {
              "internalType": "uint256",
              "name": "preVerificationGas",
              "type": "uint256"
            },
            {
              "internalType": "uint256",
              "name": "maxFeePerGas",
              "type": "uint256"
            },
            {
              "internalType": "uint256",
              "name": "maxPriorityFeePerGas",
              "type": "uint256"
            },
            {
              "internalType": "bytes",
              "name": "paymasterAndData",
              "type": "bytes"
            },
            {
              "internalType": "bytes",
              "name": "signature",
              "type": "bytes"
            }
          ],
          "internalType": "struct UserOperation",
          "name": "op",
          "type": "tuple"
        }
      ],
      "name": "simulateHandleOp",
      "outputs": [],
      "stateMutability": "nonpayable",
      "type": "function"
    },
    {
      "inputs": [
        {
          "components": [
            {
              "internalType": "address",
              "name": "sender",
              "type": "address"
            },
            {
              "internalType": "uint256",
              "name": "nonce",
              "type": "uint256"
            },
            {
              "internalType": "bytes",
              "name": "initCode",
              "type": "bytes"
            },
            {
              "internalType": "bytes",
              "name": "callData",
              "type": "bytes"
            },
            {
              "internalType": "uint256",
              "name": "callGasLimit",
              "type": "uint256"
            },
            {
              "internalType": "uint256",
              "name": "verificationGasLimit",
              "type": "uint256"
            },
            {
              "internalType": "uint256",
              "name": "preVerificationGas",
              "type": "uint256"
            },
            {
              "internalType": "uint256",
              "name": "maxFeePerGas",
              "type": "uint256"
            },
            {
              "internalType": "uint256",
              "name": "maxPriorityFeePerGas",
              "type": "uint256"
            },
            {
              "internalType": "bytes",
              "name": "paymasterAndData",
              "type": "bytes"
            },
            {
              "internalType": "bytes",
              "name": "signature",
              "type": "bytes"
            }
          ],
          "internalType": "struct UserOperation",
          "name": "userOp",
          "type": "tuple"
        }
      ],
      "name": "simulateValidation",
      "outputs": [],
      "stateMutability": "nonpayable",
      "type": "function"
    },
    {
      "inputs": [
        {
          "internalType": "bytes32",
          "name": "oldStateRoot",
          "type": "bytes32"
        },
        {
          "internalType": "bytes32",
          "name": "newStateRoot",
          "type": "bytes32"
        }
      ],
      "name": "transferStateRoot",
      "outputs": [],
      "stateMutability": "nonpayable",
      "type": "function"
    },
    {
      "inputs": [],
      "name": "unlockStake",
      "outputs": [],
      "stateMutability": "nonpayable",
      "type": "function"
    },
    {
      "inputs": [],
      "name": "verifier",
      "outputs": [
        {
          "internalType": "contract IVerifier",
          "name": "",
          "type": "address"
        }
      ],
      "stateMutability": "view",
      "type": "function"
    },
    {
      "inputs": [
        {
          "internalType": "address payable",
          "name": "withdrawAddress",
          "type": "address"
        }
      ],
      "name": "withdrawStake",
      "outputs": [],
      "stateMutability": "nonpayable",
      "type": "function"
    },
    {
      "inputs": [
        {
          "internalType": "address payable",
          "name": "withdrawAddress",
          "type": "address"
        },
        {
          "internalType": "uint256",
          "name": "withdrawAmount",
          "type": "uint256"
        }
      ],
      "name": "withdrawTo",
      "outputs": [],
      "stateMutability": "nonpayable",
      "type": "function"
    },
    {
      "stateMutability": "payable",
      "type": "receive"
    }
  ],
  "bytecode": "0x60c060405260405162000012906200007e565b604051809103906000f0801580156200002f573d6000803e3d6000fd5b506001600160a01b03166080523480156200004957600080fd5b5060405162003500380380620035008339810160408190526200006c916200008c565b6001600160a01b031660a052620000be565b6101f7806200330983390190565b6000602082840312156200009f57600080fd5b81516001600160a01b0381168114620000b757600080fd5b9392505050565b60805160a051613217620000f2600039600081816101f001526111cc015260008181610c9901526123c501526132176000f3fe6080604052600436106101635760003560e01c8063b760faf9116100c0578063deba576311610074578063e19bf6fa11610059578063e19bf6fa146104b3578063ee219423146104d3578063fc7e286d146104f357600080fd5b8063deba576314610487578063e12c7a851461049d57600080fd5b8063c2077116116100a5578063c207711614610427578063c23a5cea14610447578063c811d4271461046757600080fd5b8063b760faf9146103ff578063bb9fe6bf1461041257600080fd5b806370a08231116101175780638f41ec5a116100fc5780638f41ec5a146103aa5780639b249f69146103bf578063a6193531146103df57600080fd5b806370a082311461034b578063815541021461038a57600080fd5b8063205c287811610148578063205c2878146101be5780632b7ac3f3146101de5780635287ce121461022a57600080fd5b80630396cb60146101785780631d7327561461018b57600080fd5b3661017357610171336105ac565b005b600080fd5b610171610186366004612693565b610613565b34801561019757600080fd5b506101ab6101a63660046127b4565b6108d4565b6040519081526020015b60405180910390f35b3480156101ca57600080fd5b506101716101d93660046128f8565b610a8d565b3480156101ea57600080fd5b506102127f000000000000000000000000000000000000000000000000000000000000000081565b6040516001600160a01b0390911681526020016101b5565b34801561023657600080fd5b506102f1610245366004612924565b6040805160a081018252600080825260208201819052918101829052606081018290526080810191909152506001600160a01b031660009081526020818152604091829020825160a08101845281546001600160701b038082168352600160701b820460ff16151594830194909452600160781b90049092169282019290925260019091015463ffffffff81166060830152640100000000900467ffffffffffffffff16608082015290565b6040805182516001600160701b03908116825260208085015115159083015283830151169181019190915260608083015163ffffffff169082015260809182015167ffffffffffffffff169181019190915260a0016101b5565b34801561035757600080fd5b506101ab610366366004612924565b6001600160a01b03166000908152602081905260409020546001600160701b031690565b34801561039657600080fd5b506101ab6103a5366004612986565b610c1b565b3480156103b657600080fd5b506101ab600181565b3480156103cb57600080fd5b506101716103da3660046129c8565b610c82565b3480156103eb57600080fd5b506101ab6103fa3660046129fe565b610d38565b61017161040d366004612924565b6105ac565b34801561041e57600080fd5b50610171610d7a565b34801561043357600080fd5b506101716104423660046129fe565b610ed1565b34801561045357600080fd5b50610171610462366004612924565b610f59565b34801561047357600080fd5b50610171610482366004612a3a565b6111b5565b34801561049357600080fd5b506101ab60015481565b3480156104a957600080fd5b506101ab60025481565b3480156104bf57600080fd5b506101716104ce366004612ad2565b611368565b3480156104df57600080fd5b506101716104ee3660046129fe565b6113c4565b3480156104ff57600080fd5b5061056461050e366004612924565b600060208190529081526040902080546001909101546001600160701b0380831692600160701b810460ff1692600160781b9091049091169063ffffffff811690640100000000900467ffffffffffffffff1685565b604080516001600160701b0396871681529415156020860152929094169183019190915263ffffffff16606082015267ffffffffffffffff909116608082015260a0016101b5565b6105b6813461159c565b6001600160a01b03811660008181526020818152604091829020805492516001600160701b03909316835292917f2da466a7b24304f47e87fa2e1e5a81b9831ce54fec19055ce277ca2f39ba42c491015b60405180910390a25050565b33600090815260208190526040902063ffffffff821661067a5760405162461bcd60e51b815260206004820152601a60248201527f6d757374207370656369667920756e7374616b652064656c617900000000000060448201526064015b60405180910390fd5b600181015463ffffffff90811690831610156106d85760405162461bcd60e51b815260206004820152601c60248201527f63616e6e6f7420646563726561736520756e7374616b652074696d65000000006044820152606401610671565b80546000906106f8903490600160781b90046001600160701b0316612b0a565b90506000811161074a5760405162461bcd60e51b815260206004820152601260248201527f6e6f207374616b652073706563696669656400000000000000000000000000006044820152606401610671565b6001600160701b0381106107a05760405162461bcd60e51b815260206004820152600e60248201527f7374616b65206f766572666c6f770000000000000000000000000000000000006044820152606401610671565b6040805160a08101825283546001600160701b0390811682526001602080840182815286841685870190815263ffffffff808b16606088019081526000608089018181523380835296829052908a902098518954955194518916600160781b027fffffff0000000000000000000000000000ffffffffffffffffffffffffffffff951515600160701b026effffffffffffffffffffffffffffff199097169190991617949094179290921695909517865551949092018054925167ffffffffffffffff16640100000000026bffffffffffffffffffffffff19909316949093169390931717905590517fa5ae833d0bb1dcd632d98a8b70973e8516812898e19bf27b70071ebc8dc52c01906108c7908490879091825263ffffffff16602082015260400190565b60405180910390a2505050565b6000805a90503330146109295760405162461bcd60e51b815260206004820152601760248201527f4141393220696e7465726e616c2063616c6c206f6e6c790000000000000000006044820152606401610671565b8451604081015160608201518101611388015a10156109535763deaddead60e01b60005260206000fd5b60008815610a2a5760008084600001516001600160a01b0316848d8d60405161097d929190612b1d565b60006040518083038160008787f1925050503d80600081146109bb576040519150601f19603f3d011682016040523d82523d6000602084013e6109c0565b606091505b509150915081610a2757805115610a225784600001516001600160a01b03168a602001517f1c4fada7374c0a9ee8841fc38afe82932dc0f8e69012e927f061a8bae611a201876020015184604051610a19929190612b7d565b60405180910390a35b600192505b50505b600088608001515a8603019050610a7c6000838b8b8b8080601f01602080910402602001604051908101604052809392919081815260200183838082843760009201919091525088925061164c915050565b955050505050505b95945050505050565b33600090815260208190526040902080546001600160701b0316821115610af65760405162461bcd60e51b815260206004820152601960248201527f576974686472617720616d6f756e7420746f6f206c61726765000000000000006044820152606401610671565b8054610b0c9083906001600160701b0316612b96565b81546dffffffffffffffffffffffffffff19166001600160701b0391909116178155604080516001600160a01b03851681526020810184905233917fd1c19fbcd4551a5edfb66d43d2e337c04837afda3482b42bdf569a8fccdae5fb910160405180910390a26000836001600160a01b03168360405160006040518083038185875af1925050503d8060008114610bbf576040519150601f19603f3d011682016040523d82523d6000602084013e610bc4565b606091505b5050905080610c155760405162461bcd60e51b815260206004820152601260248201527f6661696c656420746f20776974686472617700000000000000000000000000006044820152606401610671565b50505050565b60008082815b81811015610c7657600a610c57878784818110610c4057610c40612ba9565b9050602002810190610c529190612bbf565b61194b565b610c62911c84612b0a565b925080610c6e81612be0565b915050610c21565b50909150505b92915050565b604051632b870d1b60e11b81526001600160a01b037f0000000000000000000000000000000000000000000000000000000000000000169063570e1a3690610cd09085908590600401612c22565b6020604051808303816000875af1158015610cef573d6000803e3d6000fd5b505050506040513d601f19601f82011682018060405250810190610d139190612c36565b604051633653dc0360e11b81526001600160a01b039091166004820152602401610671565b6000610d438261194b565b6040805160208101929092523090820152466060820152608001604051602081830303815290604052805190602001209050919050565b3360009081526020819052604081206001810154909163ffffffff9091169003610de65760405162461bcd60e51b815260206004820152600a60248201527f6e6f74207374616b6564000000000000000000000000000000000000000000006044820152606401610671565b8054600160701b900460ff16610e3e5760405162461bcd60e51b815260206004820152601160248201527f616c726561647920756e7374616b696e670000000000000000000000000000006044820152606401610671565b6001810154600090610e569063ffffffff1642612c53565b6001830180546bffffffffffffffff00000000191664010000000067ffffffffffffffff84169081029190911790915583546eff00000000000000000000000000001916845560405190815290915033907ffa9b3c14cc825c412c9ed81b3ba365a5b459439403f18829e572ed53a4180f0a90602001610607565b610ed9612609565b600080610ee860008585611964565b91509150600080610ef98484611af8565b9250925050610f0743600052565b6000610f1560008888611b75565b60808701516040516366c5612360e11b815260048101919091526024810182905267ffffffffffffffff808616604483015284166064820152909150608401610671565b3360009081526020819052604090208054600160781b90046001600160701b031680610fc75760405162461bcd60e51b815260206004820152601460248201527f4e6f207374616b6520746f2077697468647261770000000000000000000000006044820152606401610671565b6001820154640100000000900467ffffffffffffffff1661102a5760405162461bcd60e51b815260206004820152601d60248201527f6d7573742063616c6c20756e6c6f636b5374616b6528292066697273740000006044820152606401610671565b60018201544264010000000090910467ffffffffffffffff1611156110915760405162461bcd60e51b815260206004820152601b60248201527f5374616b65207769746864726177616c206973206e6f742064756500000000006044820152606401610671565b6001820180546bffffffffffffffffffffffff1916905581547fffffff0000000000000000000000000000ffffffffffffffffffffffffffffff168255604080516001600160a01b03851681526020810183905233917fb7c918e0e249f999e965cafeb6c664271b3f4317d296461500e71da39f0cbda3910160405180910390a26000836001600160a01b03168260405160006040518083038185875af1925050503d806000811461115f576040519150601f19603f3d011682016040523d82523d6000602084013e611164565b606091505b5050905080610c155760405162461bcd60e51b815260206004820152601860248201527f6661696c656420746f207769746864726177207374616b6500000000000000006044820152606401610671565b60405163a2bd95d160e01b81526001600160a01b037f0000000000000000000000000000000000000000000000000000000000000000169063a2bd95d19061120590859088908890600401612c7b565b60006040518083038186803b15801561121d57600080fd5b505afa158015611231573d6000803e3d6000fd5b508792506000915082905067ffffffffffffffff81111561125457611254612702565b60405190808252806020026020018201604052801561128d57816020015b61127a612609565b8152602001906001900390816112725790505b50905060005b828110156112f25760008282815181106112af576112af612ba9565b602002602001015190506112e7828b8b858181106112cf576112cf612ba9565b90506020028101906112e19190612bbf565b83611964565b505050600101611293565b506000805b8381101561135257611346818b8b8481811061131557611315612ba9565b90506020028101906113279190612bbf565b85848151811061133957611339612ba9565b6020026020010151611b75565b909101906001016112f7565b5061135d8482611cbd565b505050505050505050565b81600254146113b95760405162461bcd60e51b815260206004820152600560248201527f636865636b0000000000000000000000000000000000000000000000000000006044820152606401610671565b600280546001555550565b6113cc612609565b6000806113db60008585611964565b845160a00151604080518082018252600080825260208083018281526001600160a01b03958616835282825284832080546001600160701b03600160781b918290048116875260019283015463ffffffff9081169094528d51518851808a018a5287815280870188815291909a1687528686528887208054939093049091168952910154909116905283518085019094528184528301529395509193509036600061148960408a018a612c97565b9092509050600060148210156114a05760006114bb565b6114ae601460008486612cde565b6114b791612d08565b60601c5b604080518082018252600080825260208083018281526001600160a01b0386168352908290529290208054600160781b90046001600160701b031682526001015463ffffffff169091529091509350505050600080600061151c8888611af8565b92509250925060006040518060c001604052808b6080015181526020018b60400151815260200185151581526020018467ffffffffffffffff1681526020018367ffffffffffffffff1681526020016115768c6060015190565b81525090508086868960405163f04297e960e01b81526004016106719493929190612d3d565b6001600160a01b038216600090815260208190526040812080549091906115cd9084906001600160701b0316612b0a565b90506001600160701b038111156116265760405162461bcd60e51b815260206004820152601060248201527f6465706f736974206f766572666c6f77000000000000000000000000000000006044820152606401610671565b81546dffffffffffffffffffffffffffff19166001600160701b03919091161790555050565b6000805a85519091506000908161166282611dbb565b60a08301519091506001600160a01b0381166116815782519350611823565b80935060008851111561182357868202955060028a60028111156116a7576116a7612de2565b1461171957606083015160405163a9a2340960e01b81526001600160a01b0383169163a9a23409916116e1908e908d908c90600401612df8565b600060405180830381600088803b1580156116fb57600080fd5b5087f115801561170f573d6000803e3d6000fd5b5050505050611823565b606083015160405163a9a2340960e01b81526001600160a01b0383169163a9a234099161174e908e908d908c90600401612df8565b600060405180830381600088803b15801561176857600080fd5b5087f19350505050801561177a575060015b61182357611786612e3f565b806308c379a0036117c3575061179a612e5b565b806117a557506117c5565b8b828260405162fa072b60e01b815260040161067193929190612ee5565b505b60405162fa072b60e01b8152600481018c90526001600160a01b038216602482015260606044820152601160648201527f41353020706f73744f7020726576657274000000000000000000000000000000608482015260a401610671565b5a850387019650818702955085896040015110156118995760405162fa072b60e01b8152600481018c90526001600160a01b038216602482015260606044820152601f60648201527f4135312070726566756e642062656c6f772061637475616c476173436f737400608482015260a401610671565b60408901518690036118ab858261159c565b6000808c60028111156118c0576118c0612de2565b1490508460a001516001600160a01b031685600001516001600160a01b03168c602001517f49628fd1471006c1482da88028e9ce4dbb080b815c9b0344d39e5a8e6ec1419f8860200151858d8f604051611933949392919093845291151560208401526040830152606082015260800190565b60405180910390a45050505050505095945050505050565b600061195682611deb565b805190602001209050919050565b60008060005a84519091506119798682611e2a565b61198286610d38565b6020860152604081015160608201516080830151171760e087013517610100870135176effffffffffffffffffffffffffffff811115611a045760405162461bcd60e51b815260206004820152601860248201527f41413934206761732076616c756573206f766572666c6f7700000000000000006044820152606401610671565b600080611a1084611f23565b9050611a1e8a8a8a84611f71565b97509150611a2b43600052565b60a08401516060906001600160a01b031615611a5357611a4e8b8b8b85876120aa565b975090505b60005a87039050808b60a001351015611aca5760a086015160405162fa072b60e01b8152600481018e90526001600160a01b03909116602482015260606044820152601e60648201527f41413430206f76657220766572696669636174696f6e4761734c696d69740000608482015260a401610671565b60408a018390528160608b015260c08b01355a8803018a608001818152505050505050505050935093915050565b6000806000611b06856122f8565b9194509250905060008080611b1a876122f8565b9250925092508580611b295750825b95508167ffffffffffffffff168567ffffffffffffffff161015611b4b578194505b8067ffffffffffffffff168467ffffffffffffffff161115611b6b578093505b5050509250925092565b6000805a90506000611b88846060015190565b905030631d732756611b9d6060880188612c97565b87856040518563ffffffff1660e01b8152600401611bbe9493929190612f0d565b6020604051808303816000875af1925050508015611bf9575060408051601f3d908101601f19168201909252611bf691810190612fcc565b60015b611cb157600060206000803e50600051632152215360e01b8101611c7c57845160a0015160405162fa072b60e01b8152600481018990526001600160a01b03909116602482015260606044820152600f60648201527f41413935206f7574206f66206761730000000000000000000000000000000000608482015260a401610671565b600085608001515a611c8e9086612b96565b611c989190612b0a565b9050611ca888600288868561164c565b94505050611cb4565b92505b50509392505050565b6001600160a01b038216611d135760405162461bcd60e51b815260206004820152601860248201527f4141393020696e76616c69642062656e656669636961727900000000000000006044820152606401610671565b6000826001600160a01b03168260405160006040518083038185875af1925050503d8060008114611d60576040519150601f19603f3d011682016040523d82523d6000602084013e611d65565b606091505b5050905080611db65760405162461bcd60e51b815260206004820152601f60248201527f41413931206661696c65642073656e6420746f2062656e6566696369617279006044820152606401610671565b505050565b60c081015160e082015160009190808203611dd7575092915050565b611de38248830161231e565b949350505050565b6060366000611dfe610140850185612c97565b915091508360208184030360405194506020810185016040528085528082602087013750505050919050565b611e376020830183612924565b6001600160a01b0316815260208083013590820152608080830135604083015260a0830135606083015260c0808401359183019190915260e0808401359183019190915261010083013590820152366000611e96610120850185612c97565b90925090508015611f16576014811015611ef25760405162461bcd60e51b815260206004820152601d60248201527f4141393320696e76616c6964207061796d6173746572416e64446174610000006044820152606401610671565b611f00601460008385612cde565b611f0991612d08565b60601c60a0840152610c15565b600060a084015250505050565b60a081015160009081906001600160a01b0316611f41576001611f44565b60035b60ff1690506000836080015182856060015102856040015101019050611f6984611dbb565b029392505050565b60008060005a8551805191925090611f968988611f9160408c018c612c97565b612336565b60a08201516000906001600160a01b038116611fe4576001600160a01b0383166000908152602081905260409020546001600160701b0316888111611fdd57808903611fe0565b60005b9250505b6001600160a01b038116612097576001600160a01b038316600090815260208190526040902080546001600160701b0316808a11156120735760405162fa072b60e01b8152600481018e90526000602482015260606044820152601760648201527f41413231206469646e2774207061792070726566756e64000000000000000000608482015260a401610671565b81546dffffffffffffffffffffffffffff1916908a90036001600160701b03161790555b5a85039650505050505094509492505050565b825160608181015190916000918481116121065760405162461bcd60e51b815260206004820152601f60248201527f4141343120746f6f206c6974746c6520766572696669636174696f6e476173006044820152606401610671565b60a08201516001600160a01b038116600090815260208190526040902080548784039291906001600160701b03168981101561219a5760405162fa072b60e01b8152600481018e90526001600160a01b038416602482015260606044820152601e60648201527f41413331207061796d6173746572206465706f73697420746f6f206c6f770000608482015260a401610671565b8981038260000160006101000a8154816001600160701b0302191690836001600160701b03160217905550826001600160a01b031663f465c77e858e8e602001518e6040518563ffffffff1660e01b81526004016121fa9392919061302b565b60006040518083038160008887f19350505050801561223b57506040513d6000823e601f3d908101601f191682016040526122389190810190613148565b60015b6122e457612247612e3f565b806308c379a003612284575061225b612e5b565b806122665750612286565b8d848260405162fa072b60e01b815260040161067193929190612ee5565b505b60405162fa072b60e01b8152600481018e90526001600160a01b038416602482015260606044820152601660648201527f4141333320726576657274656420286f72204f4f472900000000000000000000608482015260a401610671565b909e909d509b505050505050505050505050565b60ff811615156000806123106001600886901c6131ea565b929460489490941c93915050565b600081831061232d578161232f565b825b9392505050565b8015610c15578251516001600160a01b0381163b156123a55760405162fa072b60e01b8152600481018690526000602482015260606044820152601f60648201527f414131302073656e64657220616c726561647920636f6e737472756374656400608482015260a401610671565b835160600151604051632b870d1b60e11b81526000916001600160a01b037f0000000000000000000000000000000000000000000000000000000000000000169163570e1a3691906123fd9088908890600401612c22565b60206040518083038160008887f115801561241c573d6000803e3d6000fd5b50505050506040513d601f19601f820116820180604052508101906124419190612c36565b90506001600160a01b0381166124a75760405162fa072b60e01b8152600481018790526000602482015260606044820152601b60648201527f4141313320696e6974436f6465206661696c6564206f72204f4f470000000000608482015260a401610671565b816001600160a01b0316816001600160a01b0316146125165760405162fa072b60e01b8152600481018790526000602482015260606044820152602060648201527f4141313420696e6974436f6465206d7573742072657475726e2073656e646572608482015260a401610671565b806001600160a01b03163b60000361257e5760405162fa072b60e01b8152600481018790526000602482015260606044820152602060648201527f4141313520696e6974436f6465206d757374206372656174652073656e646572608482015260a401610671565b600061258d6014828688612cde565b61259691612d08565b60601c9050826001600160a01b031686602001517fd51a9c61267aa6196961883ecf5ff2da6619c37dac0fa92122513fb32c032d2d83896000015160a001516040516125f89291906001600160a01b0392831681529116602082015260400190565b60405180910390a350505050505050565b6040518060a0016040528061266e60405180610100016040528060006001600160a01b031681526020016000815260200160008152602001600081526020016000815260200160006001600160a01b0316815260200160008152602001600081525090565b8152602001600080191681526020016000815260200160008152602001600081525090565b6000602082840312156126a557600080fd5b813563ffffffff8116811461232f57600080fd5b60008083601f8401126126cb57600080fd5b50813567ffffffffffffffff8111156126e357600080fd5b6020830191508360208285010111156126fb57600080fd5b9250929050565b634e487b7160e01b600052604160045260246000fd5b60a0810181811067ffffffffffffffff8211171561273857612738612702565b60405250565b610100810181811067ffffffffffffffff8211171561273857612738612702565b601f8201601f1916810167ffffffffffffffff8111828210171561278557612785612702565b6040525050565b6001600160a01b03811681146127a157600080fd5b50565b80356127af8161278c565b919050565b60008060008060008587036101c08112156127ce57600080fd5b863567ffffffffffffffff808211156127e657600080fd5b6127f28a838b016126b9565b9098509650601f19929092019161018091508183121561281157600080fd5b60405161281d81612718565b6101008085121561282d57600080fd5b604051945061283b8561273e565b61284760208c016127a4565b855260408b0135602086015260608b0135604086015260808b0135606086015260a08b0135608086015261287d60c08c016127a4565b60a086015260e08b81013560c0870152908b0135908501529283526101208901356020840152610140890135604084015261016089013560608401528189013560808401529194506101a088013591808311156128d957600080fd5b50506128e7888289016126b9565b969995985093965092949392505050565b6000806040838503121561290b57600080fd5b82356129168161278c565b946020939093013593505050565b60006020828403121561293657600080fd5b813561232f8161278c565b60008083601f84011261295357600080fd5b50813567ffffffffffffffff81111561296b57600080fd5b6020830191508360208260051b85010111156126fb57600080fd5b6000806020838503121561299957600080fd5b823567ffffffffffffffff8111156129b057600080fd5b6129bc85828601612941565b90969095509350505050565b600080602083850312156129db57600080fd5b823567ffffffffffffffff8111156129f257600080fd5b6129bc858286016126b9565b600060208284031215612a1057600080fd5b813567ffffffffffffffff811115612a2757600080fd5b8201610160818503121561232f57600080fd5b60008060008060008060808789031215612a5357600080fd5b863567ffffffffffffffff80821115612a6b57600080fd5b612a778a838b01612941565b90985096506020890135915080821115612a9057600080fd5b50612a9d89828a016126b9565b9095509350506060870188811115612ab457600080fd5b60408801925035612ac48161278c565b809150509295509295509295565b60008060408385031215612ae557600080fd5b50508035926020909101359150565b634e487b7160e01b600052601160045260246000fd5b80820180821115610c7c57610c7c612af4565b8183823760009101908152919050565b60005b83811015612b48578181015183820152602001612b30565b50506000910152565b60008151808452612b69816020860160208601612b2d565b601f01601f19169290920160200192915050565b828152604060208201526000611de36040830184612b51565b81810381811115610c7c57610c7c612af4565b634e487b7160e01b600052603260045260246000fd5b6000823561015e19833603018112612bd657600080fd5b9190910192915050565b600060018201612bf257612bf2612af4565b5060010190565b81835281816020850137506000828201602090810191909152601f909101601f19169091010190565b602081526000611de3602083018486612bf9565b600060208284031215612c4857600080fd5b815161232f8161278c565b67ffffffffffffffff818116838216019080821115612c7457612c74612af4565b5092915050565b6020848237604060208201526000610a84604083018486612bf9565b6000808335601e19843603018112612cae57600080fd5b83018035915067ffffffffffffffff821115612cc957600080fd5b6020019150368190038213156126fb57600080fd5b60008085851115612cee57600080fd5b83861115612cfb57600080fd5b5050820193919092039150565b6bffffffffffffffffffffffff198135818116916014851015612d355780818660140360031b1b83161692505b505092915050565b60e0808252855190820152602085015161010082015260408501511515610120820152606085015167ffffffffffffffff90811661014083015260808601511661016082015260a085015160c0610180830152600090612da16101a0840182612b51565b915050612dbb602083018680518252602090810151910152565b8351606083015260208401516080830152825160a0830152602083015160c0830152610a84565b634e487b7160e01b600052602160045260246000fd5b600060038510612e1857634e487b7160e01b600052602160045260246000fd5b84825260606020830152612e2f6060830185612b51565b9050826040830152949350505050565b600060033d1115612e585760046000803e5060005160e01c5b90565b600060443d1015612e695790565b6040516003193d81016004833e81513d67ffffffffffffffff8160248401118184111715612e9957505050505090565b8285019150815181811115612eb15750505050505090565b843d8701016020828501011115612ecb5750505050505090565b612eda6020828601018761275f565b509095945050505050565b8381526001600160a01b0383166020820152606060408201526000610a846060830184612b51565b60006101c0808352612f228184018789612bf9565b905084516001600160a01b03808251166020860152602082015160408601526040820151606086015260608201516080860152608082015160a08601528060a08301511660c08601525060c081015160e085015260e08101516101008501525060208501516101208401526040850151610140840152606085015161016084015260808501516101808401528281036101a0840152612fc18185612b51565b979650505050505050565b600060208284031215612fde57600080fd5b5051919050565b6000808335601e19843603018112612ffc57600080fd5b830160208101925035905067ffffffffffffffff81111561301c57600080fd5b8036038213156126fb57600080fd5b6060815261304c6060820161303f866127a4565b6001600160a01b03169052565b6020840135608082015260006130656040860186612fe5565b6101608060a086015261307d6101c086018385612bf9565b925061308c6060890189612fe5565b9250605f19808786030160c08801526130a6858584612bf9565b945060808a013560e0880152610100935060a08a013584880152610120915060c08a01358288015261014060e08b013581890152848b0135848901526130ee838c018c612fe5565b955093508188870301610180890152613108868686612bf9565b9550613116818c018c612fe5565b955093505080878603016101a08801525050613133838383612bf9565b60208601979097525050505060400152919050565b6000806040838503121561315b57600080fd5b825167ffffffffffffffff8082111561317357600080fd5b818501915085601f83011261318757600080fd5b81518181111561319957613199612702565b60405191506131b2601f8201601f19166020018361275f565b8082528660208285010111156131c757600080fd5b6131d8816020840160208601612b2d565b50602094909401519395939450505050565b8181036000831280158383131683831282161715612c7457612c74612af456fea164736f6c6343000811000a608060405234801561001057600080fd5b506101d7806100206000396000f3fe608060405234801561001057600080fd5b506004361061002b5760003560e01c8063570e1a3614610030575b600080fd5b61004361003e3660046100f9565b61006c565b60405173ffffffffffffffffffffffffffffffffffffffff909116815260200160405180910390f35b60008061007c601482858761016b565b61008591610195565b60601c90506000610099846014818861016b565b8080601f016020809104026020016040519081016040528093929190818152602001838380828437600092018290525084519495509360209350849250905082850182875af190506000519350806100f057600093505b50505092915050565b6000806020838503121561010c57600080fd5b823567ffffffffffffffff8082111561012457600080fd5b818501915085601f83011261013857600080fd5b81358181111561014757600080fd5b86602082850101111561015957600080fd5b60209290920196919550909350505050565b6000808585111561017b57600080fd5b8386111561018857600080fd5b5050820193919092039150565b6bffffffffffffffffffffffff1981358181169160148510156101c25780818660140360031b1b83161692505b50509291505056fea164736f6c6343000811000a",
  "linkReferences": {},
  "deployedLinkReferences": {}
}