{
  "_format": "hh-sol-artifact-1",
  "contractName": "EntryPoint",
  "sourceName": "contracts/EntryPoint.sol",
  "abi": [
    {
      "inputs": [
        {
          "internalType": "contract IVerifier",
          "name": "_verifier",
          "type": "address"
        }
      ],
      "stateMutability": "nonpayable",
      "type": "constructor"
    },
    {
      "inputs": [
        {
          "internalType": "uint256",
          "name": "preOpGas",
          "type": "uint256"
        },
        {
          "internalType": "uint256",
          "name": "paid",
          "type": "uint256"
        },
        {
          "internalType": "uint64",
          "name": "validAfter",
          "type": "uint64"
        },
        {
          "internalType": "uint64",
          "name": "validBefore",
          "type": "uint64"
        }
      ],
      "name": "ExecutionResult",
      "type": "error"
    },
    {
      "inputs": [
        {
          "internalType": "uint256",
          "name": "opIndex",
          "type": "uint256"
        },
        {
          "internalType": "address",
          "name": "paymaster",
          "type": "address"
        },
        {
          "internalType": "string",
          "name": "reason",
          "type": "string"
        }
      ],
      "name": "FailedOp",
      "type": "error"
    },
    {
      "inputs": [
        {
          "internalType": "address",
          "name": "sender",
          "type": "address"
        }
      ],
      "name": "SenderAddressResult",
      "type": "error"
    },
    {
      "inputs": [
        {
          "components": [
            {
              "internalType": "uint256",
              "name": "preOpGas",
              "type": "uint256"
            },
            {
              "internalType": "uint256",
              "name": "prefund",
              "type": "uint256"
            },
            {
              "internalType": "bool",
              "name": "sigFailed",
              "type": "bool"
            },
            {
              "internalType": "uint64",
              "name": "validAfter",
              "type": "uint64"
            },
            {
              "internalType": "uint64",
              "name": "validUntil",
              "type": "uint64"
            },
            {
              "internalType": "bytes",
              "name": "paymasterContext",
              "type": "bytes"
            }
          ],
          "internalType": "struct IEntryPoint.ReturnInfo",
          "name": "returnInfo",
          "type": "tuple"
        },
        {
          "components": [
            {
              "internalType": "uint256",
              "name": "stake",
              "type": "uint256"
            },
            {
              "internalType": "uint256",
              "name": "unstakeDelaySec",
              "type": "uint256"
            }
          ],
          "internalType": "struct IStakeManager.StakeInfo",
          "name": "senderInfo",
          "type": "tuple"
        },
        {
          "components": [
            {
              "internalType": "uint256",
              "name": "stake",
              "type": "uint256"
            },
            {
              "internalType": "uint256",
              "name": "unstakeDelaySec",
              "type": "uint256"
            }
          ],
          "internalType": "struct IStakeManager.StakeInfo",
          "name": "factoryInfo",
          "type": "tuple"
        },
        {
          "components": [
            {
              "internalType": "uint256",
              "name": "stake",
              "type": "uint256"
            },
            {
              "internalType": "uint256",
              "name": "unstakeDelaySec",
              "type": "uint256"
            }
          ],
          "internalType": "struct IStakeManager.StakeInfo",
          "name": "paymasterInfo",
          "type": "tuple"
        }
      ],
      "name": "ValidationResult",
      "type": "error"
    },
    {
      "anonymous": false,
      "inputs": [
        {
          "indexed": true,
          "internalType": "bytes32",
          "name": "userOpHash",
          "type": "bytes32"
        },
        {
          "indexed": true,
          "internalType": "address",
          "name": "sender",
          "type": "address"
        },
        {
          "indexed": false,
          "internalType": "address",
          "name": "factory",
          "type": "address"
        },
        {
          "indexed": false,
          "internalType": "address",
          "name": "paymaster",
          "type": "address"
        }
      ],
      "name": "AccountDeployed",
      "type": "event"
    },
    {
      "anonymous": false,
      "inputs": [
        {
          "indexed": true,
          "internalType": "address",
          "name": "account",
          "type": "address"
        },
        {
          "indexed": false,
          "internalType": "uint256",
          "name": "totalDeposit",
          "type": "uint256"
        }
      ],
      "name": "Deposited",
      "type": "event"
    },
    {
      "anonymous": false,
      "inputs": [
        {
          "indexed": true,
          "internalType": "address",
          "name": "account",
          "type": "address"
        },
        {
          "indexed": false,
          "internalType": "uint256",
          "name": "totalStaked",
          "type": "uint256"
        },
        {
          "indexed": false,
          "internalType": "uint256",
          "name": "withdrawTime",
          "type": "uint256"
        }
      ],
      "name": "StakeLocked",
      "type": "event"
    },
    {
      "anonymous": false,
      "inputs": [
        {
          "indexed": true,
          "internalType": "address",
          "name": "account",
          "type": "address"
        },
        {
          "indexed": false,
          "internalType": "uint256",
          "name": "withdrawTime",
          "type": "uint256"
        }
      ],
      "name": "StakeUnlocked",
      "type": "event"
    },
    {
      "anonymous": false,
      "inputs": [
        {
          "indexed": true,
          "internalType": "address",
          "name": "account",
          "type": "address"
        },
        {
          "indexed": false,
          "internalType": "address",
          "name": "withdrawAddress",
          "type": "address"
        },
        {
          "indexed": false,
          "internalType": "uint256",
          "name": "amount",
          "type": "uint256"
        }
      ],
      "name": "StakeWithdrawn",
      "type": "event"
    },
    {
      "anonymous": false,
      "inputs": [
        {
          "indexed": true,
          "internalType": "bytes32",
          "name": "userOpHash",
          "type": "bytes32"
        },
        {
          "indexed": true,
          "internalType": "address",
          "name": "sender",
          "type": "address"
        },
        {
          "indexed": true,
          "internalType": "address",
          "name": "paymaster",
          "type": "address"
        },
        {
          "indexed": false,
          "internalType": "uint256",
          "name": "nonce",
          "type": "uint256"
        },
        {
          "indexed": false,
          "internalType": "bool",
          "name": "success",
          "type": "bool"
        },
        {
          "indexed": false,
          "internalType": "uint256",
          "name": "actualGasCost",
          "type": "uint256"
        },
        {
          "indexed": false,
          "internalType": "uint256",
          "name": "actualGasUsed",
          "type": "uint256"
        }
      ],
      "name": "UserOperationEvent",
      "type": "event"
    },
    {
      "anonymous": false,
      "inputs": [
        {
          "indexed": true,
          "internalType": "bytes32",
          "name": "userOpsUnionHash",
          "type": "bytes32"
        },
        {
          "indexed": false,
          "internalType": "bytes32[]",
          "name": "userOpsHash",
          "type": "bytes32[]"
        },
        {
          "indexed": false,
          "internalType": "address[]",
          "name": "senders",
          "type": "address[]"
        },
        {
          "indexed": false,
          "internalType": "uint256[]",
          "name": "fees",
          "type": "uint256[]"
        }
      ],
      "name": "UserOperationExecuteFeeLog",
      "type": "event"
    },
    {
      "anonymous": false,
      "inputs": [
        {
          "indexed": true,
          "internalType": "bytes32",
          "name": "userOpHash",
          "type": "bytes32"
        },
        {
          "indexed": true,
          "internalType": "address",
          "name": "sender",
          "type": "address"
        },
        {
          "indexed": false,
          "internalType": "uint256",
          "name": "nonce",
          "type": "uint256"
        },
        {
          "indexed": false,
          "internalType": "bytes",
          "name": "revertReason",
          "type": "bytes"
        }
      ],
      "name": "UserOperationRevertReason",
      "type": "event"
    },
    {
      "anonymous": false,
      "inputs": [
        {
          "indexed": true,
          "internalType": "address",
          "name": "account",
          "type": "address"
        },
        {
          "indexed": false,
          "internalType": "address",
          "name": "withdrawAddress",
          "type": "address"
        },
        {
          "indexed": false,
          "internalType": "uint256",
          "name": "amount",
          "type": "uint256"
        }
      ],
      "name": "Withdrawn",
      "type": "event"
    },
    {
      "inputs": [],
      "name": "SIG_VALIDATION_FAILED",
      "outputs": [
        {
          "internalType": "uint256",
          "name": "",
          "type": "uint256"
        }
      ],
      "stateMutability": "view",
      "type": "function"
    },
    {
      "inputs": [],
      "name": "_curStateRoot",
      "outputs": [
        {
          "internalType": "bytes32",
          "name": "",
          "type": "bytes32"
        }
      ],
      "stateMutability": "view",
      "type": "function"
    },
    {
      "inputs": [],
      "name": "_oldStateRoot",
      "outputs": [
        {
          "internalType": "bytes32",
          "name": "",
          "type": "bytes32"
        }
      ],
      "stateMutability": "view",
      "type": "function"
    },
    {
      "inputs": [
        {
          "internalType": "uint32",
          "name": "_unstakeDelaySec",
          "type": "uint32"
        }
      ],
      "name": "addStake",
      "outputs": [],
      "stateMutability": "payable",
      "type": "function"
    },
    {
      "inputs": [
        {
          "internalType": "address",
          "name": "account",
          "type": "address"
        }
      ],
      "name": "balanceOf",
      "outputs": [
        {
          "internalType": "uint256",
          "name": "",
          "type": "uint256"
        }
      ],
      "stateMutability": "view",
      "type": "function"
    },
    {
      "inputs": [
        {
          "components": [
            {
              "internalType": "address",
              "name": "sender",
              "type": "address"
            },
            {
              "internalType": "uint256",
              "name": "nonce",
              "type": "uint256"
            },
            {
              "internalType": "bytes",
              "name": "initCode",
              "type": "bytes"
            },
            {
              "internalType": "bytes",
              "name": "callData",
              "type": "bytes"
            },
            {
              "internalType": "uint256",
              "name": "callGasLimit",
              "type": "uint256"
            },
            {
              "internalType": "uint256",
              "name": "verificationGasLimit",
              "type": "uint256"
            },
            {
              "internalType": "uint256",
              "name": "preVerificationGas",
              "type": "uint256"
            },
            {
              "internalType": "uint256",
              "name": "maxFeePerGas",
              "type": "uint256"
            },
            {
              "internalType": "uint256",
              "name": "maxPriorityFeePerGas",
              "type": "uint256"
            },
            {
              "internalType": "bytes",
              "name": "paymasterAndData",
              "type": "bytes"
            },
            {
              "internalType": "bytes",
              "name": "signature",
              "type": "bytes"
            }
          ],
          "internalType": "struct UserOperation[]",
          "name": "ops",
          "type": "tuple[]"
        }
      ],
      "name": "calculateUserOpHashesSum",
      "outputs": [
        {
          "internalType": "uint256",
          "name": "",
          "type": "uint256"
        }
      ],
      "stateMutability": "pure",
      "type": "function"
    },
    {
      "inputs": [
        {
          "internalType": "address",
          "name": "account",
          "type": "address"
        }
      ],
      "name": "depositTo",
      "outputs": [],
      "stateMutability": "payable",
      "type": "function"
    },
    {
      "inputs": [
        {
          "internalType": "address",
          "name": "",
          "type": "address"
        }
      ],
      "name": "deposits",
      "outputs": [
        {
          "internalType": "uint112",
          "name": "deposit",
          "type": "uint112"
        },
        {
          "internalType": "bool",
          "name": "staked",
          "type": "bool"
        },
        {
          "internalType": "uint112",
          "name": "stake",
          "type": "uint112"
        },
        {
          "internalType": "uint32",
          "name": "unstakeDelaySec",
          "type": "uint32"
        },
        {
          "internalType": "uint64",
          "name": "withdrawTime",
          "type": "uint64"
        }
      ],
      "stateMutability": "view",
      "type": "function"
    },
    {
      "inputs": [
        {
          "internalType": "address",
          "name": "account",
          "type": "address"
        }
      ],
      "name": "getDepositInfo",
      "outputs": [
        {
          "components": [
            {
              "internalType": "uint112",
              "name": "deposit",
              "type": "uint112"
            },
            {
              "internalType": "bool",
              "name": "staked",
              "type": "bool"
            },
            {
              "internalType": "uint112",
              "name": "stake",
              "type": "uint112"
            },
            {
              "internalType": "uint32",
              "name": "unstakeDelaySec",
              "type": "uint32"
            },
            {
              "internalType": "uint64",
              "name": "withdrawTime",
              "type": "uint64"
            }
          ],
          "internalType": "struct IStakeManager.DepositInfo",
          "name": "info",
          "type": "tuple"
        }
      ],
      "stateMutability": "view",
      "type": "function"
    },
    {
      "inputs": [
        {
          "internalType": "bytes",
          "name": "initCode",
          "type": "bytes"
        }
      ],
      "name": "getSenderAddress",
      "outputs": [],
      "stateMutability": "nonpayable",
      "type": "function"
    },
    {
      "inputs": [
        {
          "components": [
            {
              "internalType": "address",
              "name": "sender",
              "type": "address"
            },
            {
              "internalType": "uint256",
              "name": "nonce",
              "type": "uint256"
            },
            {
              "internalType": "bytes",
              "name": "initCode",
              "type": "bytes"
            },
            {
              "internalType": "bytes",
              "name": "callData",
              "type": "bytes"
            },
            {
              "internalType": "uint256",
              "name": "callGasLimit",
              "type": "uint256"
            },
            {
              "internalType": "uint256",
              "name": "verificationGasLimit",
              "type": "uint256"
            },
            {
              "internalType": "uint256",
              "name": "preVerificationGas",
              "type": "uint256"
            },
            {
              "internalType": "uint256",
              "name": "maxFeePerGas",
              "type": "uint256"
            },
            {
              "internalType": "uint256",
              "name": "maxPriorityFeePerGas",
              "type": "uint256"
            },
            {
              "internalType": "bytes",
              "name": "paymasterAndData",
              "type": "bytes"
            },
            {
              "internalType": "bytes",
              "name": "signature",
              "type": "bytes"
            }
          ],
          "internalType": "struct UserOperation",
          "name": "userOp",
          "type": "tuple"
        }
      ],
      "name": "getUserOpHash",
      "outputs": [
        {
          "internalType": "bytes32",
          "name": "",
          "type": "bytes32"
        }
      ],
      "stateMutability": "view",
      "type": "function"
    },
    {
      "inputs": [
        {
          "components": [
            {
              "internalType": "address",
              "name": "sender",
              "type": "address"
            },
            {
              "internalType": "uint256",
              "name": "nonce",
              "type": "uint256"
            },
            {
              "internalType": "bytes",
              "name": "initCode",
              "type": "bytes"
            },
            {
              "internalType": "bytes",
              "name": "callData",
              "type": "bytes"
            },
            {
              "internalType": "uint256",
              "name": "callGasLimit",
              "type": "uint256"
            },
            {
              "internalType": "uint256",
              "name": "verificationGasLimit",
              "type": "uint256"
            },
            {
              "internalType": "uint256",
              "name": "preVerificationGas",
              "type": "uint256"
            },
            {
              "internalType": "uint256",
              "name": "maxFeePerGas",
              "type": "uint256"
            },
            {
              "internalType": "uint256",
              "name": "maxPriorityFeePerGas",
              "type": "uint256"
            },
            {
              "internalType": "bytes",
              "name": "paymasterAndData",
              "type": "bytes"
            },
            {
              "internalType": "bytes",
              "name": "signature",
              "type": "bytes"
            }
          ],
          "internalType": "struct UserOperation[]",
          "name": "ops",
          "type": "tuple[]"
        },
        {
          "internalType": "bytes",
          "name": "proof",
          "type": "bytes"
        },
        {
          "internalType": "uint256[1]",
          "name": "pubSignals",
          "type": "uint256[1]"
        },
        {
          "internalType": "address payable",
          "name": "beneficiary",
          "type": "address"
        }
      ],
      "name": "handleOps",
      "outputs": [],
      "stateMutability": "nonpayable",
      "type": "function"
    },
    {
      "inputs": [
        {
          "internalType": "bytes",
          "name": "callData",
          "type": "bytes"
        },
        {
          "components": [
            {
              "components": [
                {
                  "internalType": "address",
                  "name": "sender",
                  "type": "address"
                },
                {
                  "internalType": "uint256",
                  "name": "nonce",
                  "type": "uint256"
                },
                {
                  "internalType": "uint256",
                  "name": "callGasLimit",
                  "type": "uint256"
                },
                {
                  "internalType": "uint256",
                  "name": "verificationGasLimit",
                  "type": "uint256"
                },
                {
                  "internalType": "uint256",
                  "name": "preVerificationGas",
                  "type": "uint256"
                },
                {
                  "internalType": "address",
                  "name": "paymaster",
                  "type": "address"
                },
                {
                  "internalType": "uint256",
                  "name": "maxFeePerGas",
                  "type": "uint256"
                },
                {
                  "internalType": "uint256",
                  "name": "maxPriorityFeePerGas",
                  "type": "uint256"
                }
              ],
              "internalType": "struct EntryPoint.MemoryUserOp",
              "name": "mUserOp",
              "type": "tuple"
            },
            {
              "internalType": "bytes32",
              "name": "userOpHash",
              "type": "bytes32"
            },
            {
              "internalType": "uint256",
              "name": "prefund",
              "type": "uint256"
            },
            {
              "internalType": "uint256",
              "name": "contextOffset",
              "type": "uint256"
            },
            {
              "internalType": "uint256",
              "name": "preOpGas",
              "type": "uint256"
            }
          ],
          "internalType": "struct EntryPoint.UserOpInfo",
          "name": "opInfo",
          "type": "tuple"
        },
        {
          "internalType": "bytes",
          "name": "context",
          "type": "bytes"
        }
      ],
      "name": "innerHandleOp",
      "outputs": [
        {
          "internalType": "uint256",
          "name": "actualGasCost",
          "type": "uint256"
        }
      ],
      "stateMutability": "nonpayable",
      "type": "function"
    },
    {
      "inputs": [
        {
          "components": [
            {
              "internalType": "address",
              "name": "sender",
              "type": "address"
            },
            {
              "internalType": "uint256",
              "name": "nonce",
              "type": "uint256"
            },
            {
              "internalType": "bytes",
              "name": "initCode",
              "type": "bytes"
            },
            {
              "internalType": "bytes",
              "name": "callData",
              "type": "bytes"
            },
            {
              "internalType": "uint256",
              "name": "callGasLimit",
              "type": "uint256"
            },
            {
              "internalType": "uint256",
              "name": "verificationGasLimit",
              "type": "uint256"
            },
            {
              "internalType": "uint256",
              "name": "preVerificationGas",
              "type": "uint256"
            },
            {
              "internalType": "uint256",
              "name": "maxFeePerGas",
              "type": "uint256"
            },
            {
              "internalType": "uint256",
              "name": "maxPriorityFeePerGas",
              "type": "uint256"
            },
            {
              "internalType": "bytes",
              "name": "paymasterAndData",
              "type": "bytes"
            },
            {
              "internalType": "bytes",
              "name": "signature",
              "type": "bytes"
            }
          ],
          "internalType": "struct UserOperation",
          "name": "op",
          "type": "tuple"
        }
      ],
      "name": "simulateHandleOp",
      "outputs": [],
      "stateMutability": "nonpayable",
      "type": "function"
    },
    {
      "inputs": [
        {
          "components": [
            {
              "internalType": "address",
              "name": "sender",
              "type": "address"
            },
            {
              "internalType": "uint256",
              "name": "nonce",
              "type": "uint256"
            },
            {
              "internalType": "bytes",
              "name": "initCode",
              "type": "bytes"
            },
            {
              "internalType": "bytes",
              "name": "callData",
              "type": "bytes"
            },
            {
              "internalType": "uint256",
              "name": "callGasLimit",
              "type": "uint256"
            },
            {
              "internalType": "uint256",
              "name": "verificationGasLimit",
              "type": "uint256"
            },
            {
              "internalType": "uint256",
              "name": "preVerificationGas",
              "type": "uint256"
            },
            {
              "internalType": "uint256",
              "name": "maxFeePerGas",
              "type": "uint256"
            },
            {
              "internalType": "uint256",
              "name": "maxPriorityFeePerGas",
              "type": "uint256"
            },
            {
              "internalType": "bytes",
              "name": "paymasterAndData",
              "type": "bytes"
            },
            {
              "internalType": "bytes",
              "name": "signature",
              "type": "bytes"
            }
          ],
          "internalType": "struct UserOperation",
          "name": "userOp",
          "type": "tuple"
        }
      ],
      "name": "simulateValidation",
      "outputs": [],
      "stateMutability": "nonpayable",
      "type": "function"
    },
    {
      "inputs": [
        {
          "internalType": "bytes32",
          "name": "oldStateRoot",
          "type": "bytes32"
        },
        {
          "internalType": "bytes32",
          "name": "newStateRoot",
          "type": "bytes32"
        }
      ],
      "name": "transferStateRoot",
      "outputs": [],
      "stateMutability": "nonpayable",
      "type": "function"
    },
    {
      "inputs": [],
      "name": "unlockStake",
      "outputs": [],
      "stateMutability": "nonpayable",
      "type": "function"
    },
    {
      "inputs": [],
      "name": "verifier",
      "outputs": [
        {
          "internalType": "contract IVerifier",
          "name": "",
          "type": "address"
        }
      ],
      "stateMutability": "view",
      "type": "function"
    },
    {
      "inputs": [
        {
          "internalType": "address payable",
          "name": "withdrawAddress",
          "type": "address"
        }
      ],
      "name": "withdrawStake",
      "outputs": [],
      "stateMutability": "nonpayable",
      "type": "function"
    },
    {
      "inputs": [
        {
          "internalType": "address payable",
          "name": "withdrawAddress",
          "type": "address"
        },
        {
          "internalType": "uint256",
          "name": "withdrawAmount",
          "type": "uint256"
        }
      ],
      "name": "withdrawTo",
      "outputs": [],
      "stateMutability": "nonpayable",
      "type": "function"
    },
    {
      "stateMutability": "payable",
      "type": "receive"
    }
  ],
  "bytecode": "0x60c060405260405162000012906200007e565b604051809103906000f0801580156200002f573d6000803e3d6000fd5b506001600160a01b03166080523480156200004957600080fd5b50604051620035b1380380620035b18339810160408190526200006c916200008c565b6001600160a01b031660a052620000be565b6101f780620033ba83390190565b6000602082840312156200009f57600080fd5b81516001600160a01b0381168114620000b757600080fd5b9392505050565b60805160a0516132c8620000f2600039600081816101f001526111cc015260008181610c99015261244e01526132c86000f3fe6080604052600436106101635760003560e01c8063b760faf9116100c0578063deba576311610074578063e19bf6fa11610059578063e19bf6fa146104b3578063ee219423146104d3578063fc7e286d146104f357600080fd5b8063deba576314610487578063e12c7a851461049d57600080fd5b8063c2077116116100a5578063c207711614610427578063c23a5cea14610447578063c811d4271461046757600080fd5b8063b760faf9146103ff578063bb9fe6bf1461041257600080fd5b806370a08231116101175780638f41ec5a116100fc5780638f41ec5a146103aa5780639b249f69146103bf578063a6193531146103df57600080fd5b806370a082311461034b578063815541021461038a57600080fd5b8063205c287811610148578063205c2878146101be5780632b7ac3f3146101de5780635287ce121461022a57600080fd5b80630396cb60146101785780631d7327561461018b57600080fd5b3661017357610171336105ac565b005b600080fd5b61017161018636600461271c565b610613565b34801561019757600080fd5b506101ab6101a636600461283d565b6108d4565b6040519081526020015b60405180910390f35b3480156101ca57600080fd5b506101716101d9366004612981565b610a8d565b3480156101ea57600080fd5b506102127f000000000000000000000000000000000000000000000000000000000000000081565b6040516001600160a01b0390911681526020016101b5565b34801561023657600080fd5b506102f16102453660046129ad565b6040805160a081018252600080825260208201819052918101829052606081018290526080810191909152506001600160a01b031660009081526020818152604091829020825160a08101845281546001600160701b038082168352600160701b820460ff16151594830194909452600160781b90049092169282019290925260019091015463ffffffff81166060830152640100000000900467ffffffffffffffff16608082015290565b6040805182516001600160701b03908116825260208085015115159083015283830151169181019190915260608083015163ffffffff169082015260809182015167ffffffffffffffff169181019190915260a0016101b5565b34801561035757600080fd5b506101ab6103663660046129ad565b6001600160a01b03166000908152602081905260409020546001600160701b031690565b34801561039657600080fd5b506101ab6103a5366004612a0f565b610c1b565b3480156103b657600080fd5b506101ab600181565b3480156103cb57600080fd5b506101716103da366004612a51565b610c82565b3480156103eb57600080fd5b506101ab6103fa366004612a87565b610d38565b61017161040d3660046129ad565b6105ac565b34801561041e57600080fd5b50610171610d7a565b34801561043357600080fd5b50610171610442366004612a87565b610ed1565b34801561045357600080fd5b506101716104623660046129ad565b610f59565b34801561047357600080fd5b50610171610482366004612ac3565b6111b5565b34801561049357600080fd5b506101ab60015481565b3480156104a957600080fd5b506101ab60025481565b3480156104bf57600080fd5b506101716104ce366004612b5b565b611289565b3480156104df57600080fd5b506101716104ee366004612a87565b6112e5565b3480156104ff57600080fd5b5061056461050e3660046129ad565b600060208190529081526040902080546001909101546001600160701b0380831692600160701b810460ff1692600160781b9091049091169063ffffffff811690640100000000900467ffffffffffffffff1685565b604080516001600160701b0396871681529415156020860152929094169183019190915263ffffffff16606082015267ffffffffffffffff909116608082015260a0016101b5565b6105b681346114bd565b6001600160a01b03811660008181526020818152604091829020805492516001600160701b03909316835292917f2da466a7b24304f47e87fa2e1e5a81b9831ce54fec19055ce277ca2f39ba42c491015b60405180910390a25050565b33600090815260208190526040902063ffffffff821661067a5760405162461bcd60e51b815260206004820152601a60248201527f6d757374207370656369667920756e7374616b652064656c617900000000000060448201526064015b60405180910390fd5b600181015463ffffffff90811690831610156106d85760405162461bcd60e51b815260206004820152601c60248201527f63616e6e6f7420646563726561736520756e7374616b652074696d65000000006044820152606401610671565b80546000906106f8903490600160781b90046001600160701b0316612b93565b90506000811161074a5760405162461bcd60e51b815260206004820152601260248201527f6e6f207374616b652073706563696669656400000000000000000000000000006044820152606401610671565b6001600160701b0381106107a05760405162461bcd60e51b815260206004820152600e60248201527f7374616b65206f766572666c6f770000000000000000000000000000000000006044820152606401610671565b6040805160a08101825283546001600160701b0390811682526001602080840182815286841685870190815263ffffffff808b16606088019081526000608089018181523380835296829052908a902098518954955194518916600160781b027fffffff0000000000000000000000000000ffffffffffffffffffffffffffffff951515600160701b026effffffffffffffffffffffffffffff199097169190991617949094179290921695909517865551949092018054925167ffffffffffffffff16640100000000026bffffffffffffffffffffffff19909316949093169390931717905590517fa5ae833d0bb1dcd632d98a8b70973e8516812898e19bf27b70071ebc8dc52c01906108c7908490879091825263ffffffff16602082015260400190565b60405180910390a2505050565b6000805a90503330146109295760405162461bcd60e51b815260206004820152601760248201527f4141393220696e7465726e616c2063616c6c206f6e6c790000000000000000006044820152606401610671565b8451604081015160608201518101611388015a10156109535763deaddead60e01b60005260206000fd5b60008815610a2a5760008084600001516001600160a01b0316848d8d60405161097d929190612ba6565b60006040518083038160008787f1925050503d80600081146109bb576040519150601f19603f3d011682016040523d82523d6000602084013e6109c0565b606091505b509150915081610a2757805115610a225784600001516001600160a01b03168a602001517f1c4fada7374c0a9ee8841fc38afe82932dc0f8e69012e927f061a8bae611a201876020015184604051610a19929190612c06565b60405180910390a35b600192505b50505b600088608001515a8603019050610a7c6000838b8b8b8080601f01602080910402602001604051908101604052809392919081815260200183838082843760009201919091525088925061156d915050565b955050505050505b95945050505050565b33600090815260208190526040902080546001600160701b0316821115610af65760405162461bcd60e51b815260206004820152601960248201527f576974686472617720616d6f756e7420746f6f206c61726765000000000000006044820152606401610671565b8054610b0c9083906001600160701b0316612c1f565b81546dffffffffffffffffffffffffffff19166001600160701b0391909116178155604080516001600160a01b03851681526020810184905233917fd1c19fbcd4551a5edfb66d43d2e337c04837afda3482b42bdf569a8fccdae5fb910160405180910390a26000836001600160a01b03168360405160006040518083038185875af1925050503d8060008114610bbf576040519150601f19603f3d011682016040523d82523d6000602084013e610bc4565b606091505b5050905080610c155760405162461bcd60e51b815260206004820152601260248201527f6661696c656420746f20776974686472617700000000000000000000000000006044820152606401610671565b50505050565b60008082815b81811015610c7657600a610c57878784818110610c4057610c40612c32565b9050602002810190610c529190612c48565b61186c565b610c62911c84612b93565b925080610c6e81612c69565b915050610c21565b50909150505b92915050565b604051632b870d1b60e11b81526001600160a01b037f0000000000000000000000000000000000000000000000000000000000000000169063570e1a3690610cd09085908590600401612cab565b6020604051808303816000875af1158015610cef573d6000803e3d6000fd5b505050506040513d601f19601f82011682018060405250810190610d139190612cbf565b604051633653dc0360e11b81526001600160a01b039091166004820152602401610671565b6000610d438261186c565b6040805160208101929092523090820152466060820152608001604051602081830303815290604052805190602001209050919050565b3360009081526020819052604081206001810154909163ffffffff9091169003610de65760405162461bcd60e51b815260206004820152600a60248201527f6e6f74207374616b6564000000000000000000000000000000000000000000006044820152606401610671565b8054600160701b900460ff16610e3e5760405162461bcd60e51b815260206004820152601160248201527f616c726561647920756e7374616b696e670000000000000000000000000000006044820152606401610671565b6001810154600090610e569063ffffffff1642612cdc565b6001830180546bffffffffffffffff00000000191664010000000067ffffffffffffffff84169081029190911790915583546eff00000000000000000000000000001916845560405190815290915033907ffa9b3c14cc825c412c9ed81b3ba365a5b459439403f18829e572ed53a4180f0a90602001610607565b610ed9612692565b600080610ee860008585611885565b91509150600080610ef98484611a19565b9250925050610f0743600052565b6000610f1560008888611a96565b60808701516040516366c5612360e11b815260048101919091526024810182905267ffffffffffffffff808616604483015284166064820152909150608401610671565b3360009081526020819052604090208054600160781b90046001600160701b031680610fc75760405162461bcd60e51b815260206004820152601460248201527f4e6f207374616b6520746f2077697468647261770000000000000000000000006044820152606401610671565b6001820154640100000000900467ffffffffffffffff1661102a5760405162461bcd60e51b815260206004820152601d60248201527f6d7573742063616c6c20756e6c6f636b5374616b6528292066697273740000006044820152606401610671565b60018201544264010000000090910467ffffffffffffffff1611156110915760405162461bcd60e51b815260206004820152601b60248201527f5374616b65207769746864726177616c206973206e6f742064756500000000006044820152606401610671565b6001820180546bffffffffffffffffffffffff1916905581547fffffff0000000000000000000000000000ffffffffffffffffffffffffffffff168255604080516001600160a01b03851681526020810183905233917fb7c918e0e249f999e965cafeb6c664271b3f4317d296461500e71da39f0cbda3910160405180910390a26000836001600160a01b03168260405160006040518083038185875af1925050503d806000811461115f576040519150601f19603f3d011682016040523d82523d6000602084013e611164565b606091505b5050905080610c155760405162461bcd60e51b815260206004820152601860248201527f6661696c656420746f207769746864726177207374616b6500000000000000006044820152606401610671565b60405163a2bd95d160e01b81526001600160a01b037f0000000000000000000000000000000000000000000000000000000000000000169063a2bd95d19061120590859088908890600401612d04565b60006040518083038186803b15801561121d57600080fd5b505afa158015611231573d6000803e3d6000fd5b50879250600091508190505b8281101561127e57611272818a8a8481811061125b5761125b612c32565b905060200281019061126d9190612c48565b611bde565b9091019060010161123d565b505050505050505050565b81600254146112da5760405162461bcd60e51b815260206004820152600560248201527f636865636b0000000000000000000000000000000000000000000000000000006044820152606401610671565b600280546001555550565b6112ed612692565b6000806112fc60008585611885565b845160a00151604080518082018252600080825260208083018281526001600160a01b03958616835282825284832080546001600160701b03600160781b918290048116875260019283015463ffffffff9081169094528d51518851808a018a5287815280870188815291909a168752868652888720805493909304909116895291015490911690528351808501909452818452830152939550919350903660006113aa60408a018a612d20565b9092509050600060148210156113c15760006113dc565b6113cf601460008486612d67565b6113d891612d91565b60601c5b604080518082018252600080825260208083018281526001600160a01b0386168352908290529290208054600160781b90046001600160701b031682526001015463ffffffff169091529091509350505050600080600061143d8888611a19565b92509250925060006040518060c001604052808b6080015181526020018b60400151815260200185151581526020018467ffffffffffffffff1681526020018367ffffffffffffffff1681526020016114978c6060015190565b81525090508086868960405163f04297e960e01b81526004016106719493929190612dc6565b6001600160a01b038216600090815260208190526040812080549091906114ee9084906001600160701b0316612b93565b90506001600160701b038111156115475760405162461bcd60e51b815260206004820152601060248201527f6465706f736974206f766572666c6f77000000000000000000000000000000006044820152606401610671565b81546dffffffffffffffffffffffffffff19166001600160701b03919091161790555050565b6000805a85519091506000908161158382611d31565b60a08301519091506001600160a01b0381166115a25782519350611744565b80935060008851111561174457868202955060028a60028111156115c8576115c8612e6b565b1461163a57606083015160405163a9a2340960e01b81526001600160a01b0383169163a9a2340991611602908e908d908c90600401612e81565b600060405180830381600088803b15801561161c57600080fd5b5087f1158015611630573d6000803e3d6000fd5b5050505050611744565b606083015160405163a9a2340960e01b81526001600160a01b0383169163a9a234099161166f908e908d908c90600401612e81565b600060405180830381600088803b15801561168957600080fd5b5087f19350505050801561169b575060015b611744576116a7612ec8565b806308c379a0036116e457506116bb612ee4565b806116c657506116e6565b8b828260405162fa072b60e01b815260040161067193929190612f6e565b505b60405162fa072b60e01b8152600481018c90526001600160a01b038216602482015260606044820152601160648201527f41353020706f73744f7020726576657274000000000000000000000000000000608482015260a401610671565b5a850387019650818702955085896040015110156117ba5760405162fa072b60e01b8152600481018c90526001600160a01b038216602482015260606044820152601f60648201527f4135312070726566756e642062656c6f772061637475616c476173436f737400608482015260a401610671565b60408901518690036117cc85826114bd565b6000808c60028111156117e1576117e1612e6b565b1490508460a001516001600160a01b031685600001516001600160a01b03168c602001517f49628fd1471006c1482da88028e9ce4dbb080b815c9b0344d39e5a8e6ec1419f8860200151858d8f604051611854949392919093845291151560208401526040830152606082015260800190565b60405180910390a45050505050505095945050505050565b600061187782611d61565b805190602001209050919050565b60008060005a845190915061189a8682611da0565b6118a386610d38565b6020860152604081015160608201516080830151171760e087013517610100870135176effffffffffffffffffffffffffffff8111156119255760405162461bcd60e51b815260206004820152601860248201527f41413934206761732076616c756573206f766572666c6f7700000000000000006044820152606401610671565b60008061193184611e99565b905061193f8a8a8a84611ee7565b9750915061194c43600052565b60a08401516060906001600160a01b0316156119745761196f8b8b8b8587612133565b975090505b60005a87039050808b60a0013510156119eb5760a086015160405162fa072b60e01b8152600481018e90526001600160a01b03909116602482015260606044820152601e60648201527f41413430206f76657220766572696669636174696f6e4761734c696d69740000608482015260a401610671565b60408a018390528160608b015260c08b01355a8803018a608001818152505050505050505050935093915050565b6000806000611a2785612381565b9194509250905060008080611a3b87612381565b9250925092508580611a4a5750825b95508167ffffffffffffffff168567ffffffffffffffff161015611a6c578194505b8067ffffffffffffffff168467ffffffffffffffff161115611a8c578093505b5050509250925092565b6000805a90506000611aa9846060015190565b905030631d732756611abe6060880188612d20565b87856040518563ffffffff1660e01b8152600401611adf9493929190612f96565b6020604051808303816000875af1925050508015611b1a575060408051601f3d908101601f19168201909252611b1791810190613055565b60015b611bd257600060206000803e50600051632152215360e01b8101611b9d57845160a0015160405162fa072b60e01b8152600481018990526001600160a01b03909116602482015260606044820152600f60648201527f41413935206f7574206f66206761730000000000000000000000000000000000608482015260a401610671565b600085608001515a611baf9086612c1f565b611bb99190612b93565b9050611bc988600288868561156d565b94505050611bd5565b92505b50509392505050565b6000805a90506000611bf36060850185612d20565b8080601f0160208091040260200160405190810160405280939291908181526020018383808284376000920182905250939450611c379250505060208601866129ad565b825190915060808601359015611d1757600080836001600160a01b03168386604051611c63919061306e565b60006040518083038160008787f1925050503d8060008114611ca1576040519150601f19603f3d011682016040523d82523d6000602084013e611ca6565b606091505b509150915081611d1457805115611d1457611cc460208901896129ad565b6001600160a01b0316611cd68961186c565b7f1c4fada7374c0a9ee8841fc38afe82932dc0f8e69012e927f061a8bae611a2018a6020013584604051611d0b929190612c06565b60405180910390a35b50505b60005a611d249086612c1f565b9050505050505092915050565b60c081015160e082015160009190808203611d4d575092915050565b611d59824883016123a7565b949350505050565b6060366000611d74610140850185612d20565b915091508360208184030360405194506020810185016040528085528082602087013750505050919050565b611dad60208301836129ad565b6001600160a01b0316815260208083013590820152608080830135604083015260a0830135606083015260c0808401359183019190915260e0808401359183019190915261010083013590820152366000611e0c610120850185612d20565b90925090508015611e8c576014811015611e685760405162461bcd60e51b815260206004820152601d60248201527f4141393320696e76616c6964207061796d6173746572416e64446174610000006044820152606401610671565b611e76601460008385612d67565b611e7f91612d91565b60601c60a0840152610c15565b600060a084015250505050565b60a081015160009081906001600160a01b0316611eb7576001611eba565b60035b60ff1690506000836080015182856060015102856040015101019050611edf84611d31565b029392505050565b60008060005a8551805191925090611f0c8988611f0760408c018c612d20565b6123bf565b60a08201516000906001600160a01b038116611f5a576001600160a01b0383166000908152602081905260409020546001600160701b0316888111611f5357808903611f56565b60005b9250505b606084015160405163eeadd25560e01b81526001600160a01b0385169163eeadd25591611f8d908e9087906004016131b2565b60206040518083038160008887f193505050508015611fc9575060408051601f3d908101601f19168201909252611fc691810190613055565b60015b61206b57611fd5612ec8565b806308c379a0036120135750611fe9612ee4565b80611ff45750612015565b8b60008260405162fa072b60e01b815260040161067193929190612f6e565b505b60405162fa072b60e01b8152600481018c90526000602482015260606044820152601660648201527f4141323320726576657274656420286f72204f4f472900000000000000000000608482015260a401610671565b95506001600160a01b038116612120576001600160a01b038316600090815260208190526040902080546001600160701b0316808a11156120fc5760405162fa072b60e01b8152600481018e90526000602482015260606044820152601760648201527f41413231206469646e2774207061792070726566756e64000000000000000000608482015260a401610671565b81546dffffffffffffffffffffffffffff1916908a90036001600160701b03161790555b5a85039650505050505094509492505050565b8251606081810151909160009184811161218f5760405162461bcd60e51b815260206004820152601f60248201527f4141343120746f6f206c6974746c6520766572696669636174696f6e476173006044820152606401610671565b60a08201516001600160a01b038116600090815260208190526040902080548784039291906001600160701b0316898110156122235760405162fa072b60e01b8152600481018e90526001600160a01b038416602482015260606044820152601e60648201527f41413331207061796d6173746572206465706f73697420746f6f206c6f770000608482015260a401610671565b8981038260000160006101000a8154816001600160701b0302191690836001600160701b03160217905550826001600160a01b031663f465c77e858e8e602001518e6040518563ffffffff1660e01b8152600401612283939291906131d4565b60006040518083038160008887f1935050505080156122c457506040513d6000823e601f3d908101601f191682016040526122c191908101906131f9565b60015b61236d576122d0612ec8565b806308c379a00361230d57506122e4612ee4565b806122ef575061230f565b8d848260405162fa072b60e01b815260040161067193929190612f6e565b505b60405162fa072b60e01b8152600481018e90526001600160a01b038416602482015260606044820152601660648201527f4141333320726576657274656420286f72204f4f472900000000000000000000608482015260a401610671565b909e909d509b505050505050505050505050565b60ff811615156000806123996001600886901c61329b565b929460489490941c93915050565b60008183106123b657816123b8565b825b9392505050565b8015610c15578251516001600160a01b0381163b1561242e5760405162fa072b60e01b8152600481018690526000602482015260606044820152601f60648201527f414131302073656e64657220616c726561647920636f6e737472756374656400608482015260a401610671565b835160600151604051632b870d1b60e11b81526000916001600160a01b037f0000000000000000000000000000000000000000000000000000000000000000169163570e1a3691906124869088908890600401612cab565b60206040518083038160008887f11580156124a5573d6000803e3d6000fd5b50505050506040513d601f19601f820116820180604052508101906124ca9190612cbf565b90506001600160a01b0381166125305760405162fa072b60e01b8152600481018790526000602482015260606044820152601b60648201527f4141313320696e6974436f6465206661696c6564206f72204f4f470000000000608482015260a401610671565b816001600160a01b0316816001600160a01b03161461259f5760405162fa072b60e01b8152600481018790526000602482015260606044820152602060648201527f4141313420696e6974436f6465206d7573742072657475726e2073656e646572608482015260a401610671565b806001600160a01b03163b6000036126075760405162fa072b60e01b8152600481018790526000602482015260606044820152602060648201527f4141313520696e6974436f6465206d757374206372656174652073656e646572608482015260a401610671565b60006126166014828688612d67565b61261f91612d91565b60601c9050826001600160a01b031686602001517fd51a9c61267aa6196961883ecf5ff2da6619c37dac0fa92122513fb32c032d2d83896000015160a001516040516126819291906001600160a01b0392831681529116602082015260400190565b60405180910390a350505050505050565b6040518060a001604052806126f760405180610100016040528060006001600160a01b031681526020016000815260200160008152602001600081526020016000815260200160006001600160a01b0316815260200160008152602001600081525090565b8152602001600080191681526020016000815260200160008152602001600081525090565b60006020828403121561272e57600080fd5b813563ffffffff811681146123b857600080fd5b60008083601f84011261275457600080fd5b50813567ffffffffffffffff81111561276c57600080fd5b60208301915083602082850101111561278457600080fd5b9250929050565b634e487b7160e01b600052604160045260246000fd5b60a0810181811067ffffffffffffffff821117156127c1576127c161278b565b60405250565b610100810181811067ffffffffffffffff821117156127c1576127c161278b565b601f8201601f1916810167ffffffffffffffff8111828210171561280e5761280e61278b565b6040525050565b6001600160a01b038116811461282a57600080fd5b50565b803561283881612815565b919050565b60008060008060008587036101c081121561285757600080fd5b863567ffffffffffffffff8082111561286f57600080fd5b61287b8a838b01612742565b9098509650601f19929092019161018091508183121561289a57600080fd5b6040516128a6816127a1565b610100808512156128b657600080fd5b60405194506128c4856127c7565b6128d060208c0161282d565b855260408b0135602086015260608b0135604086015260808b0135606086015260a08b0135608086015261290660c08c0161282d565b60a086015260e08b81013560c0870152908b0135908501529283526101208901356020840152610140890135604084015261016089013560608401528189013560808401529194506101a0880135918083111561296257600080fd5b505061297088828901612742565b969995985093965092949392505050565b6000806040838503121561299457600080fd5b823561299f81612815565b946020939093013593505050565b6000602082840312156129bf57600080fd5b81356123b881612815565b60008083601f8401126129dc57600080fd5b50813567ffffffffffffffff8111156129f457600080fd5b6020830191508360208260051b850101111561278457600080fd5b60008060208385031215612a2257600080fd5b823567ffffffffffffffff811115612a3957600080fd5b612a45858286016129ca565b90969095509350505050565b60008060208385031215612a6457600080fd5b823567ffffffffffffffff811115612a7b57600080fd5b612a4585828601612742565b600060208284031215612a9957600080fd5b813567ffffffffffffffff811115612ab057600080fd5b820161016081850312156123b857600080fd5b60008060008060008060808789031215612adc57600080fd5b863567ffffffffffffffff80821115612af457600080fd5b612b008a838b016129ca565b90985096506020890135915080821115612b1957600080fd5b50612b2689828a01612742565b9095509350506060870188811115612b3d57600080fd5b60408801925035612b4d81612815565b809150509295509295509295565b60008060408385031215612b6e57600080fd5b50508035926020909101359150565b634e487b7160e01b600052601160045260246000fd5b80820180821115610c7c57610c7c612b7d565b8183823760009101908152919050565b60005b83811015612bd1578181015183820152602001612bb9565b50506000910152565b60008151808452612bf2816020860160208601612bb6565b601f01601f19169290920160200192915050565b828152604060208201526000611d596040830184612bda565b81810381811115610c7c57610c7c612b7d565b634e487b7160e01b600052603260045260246000fd5b6000823561015e19833603018112612c5f57600080fd5b9190910192915050565b600060018201612c7b57612c7b612b7d565b5060010190565b81835281816020850137506000828201602090810191909152601f909101601f19169091010190565b602081526000611d59602083018486612c82565b600060208284031215612cd157600080fd5b81516123b881612815565b67ffffffffffffffff818116838216019080821115612cfd57612cfd612b7d565b5092915050565b6020848237604060208201526000610a84604083018486612c82565b6000808335601e19843603018112612d3757600080fd5b83018035915067ffffffffffffffff821115612d5257600080fd5b60200191503681900382131561278457600080fd5b60008085851115612d7757600080fd5b83861115612d8457600080fd5b5050820193919092039150565b6bffffffffffffffffffffffff198135818116916014851015612dbe5780818660140360031b1b83161692505b505092915050565b60e0808252855190820152602085015161010082015260408501511515610120820152606085015167ffffffffffffffff90811661014083015260808601511661016082015260a085015160c0610180830152600090612e2a6101a0840182612bda565b915050612e44602083018680518252602090810151910152565b8351606083015260208401516080830152825160a0830152602083015160c0830152610a84565b634e487b7160e01b600052602160045260246000fd5b600060038510612ea157634e487b7160e01b600052602160045260246000fd5b84825260606020830152612eb86060830185612bda565b9050826040830152949350505050565b600060033d1115612ee15760046000803e5060005160e01c5b90565b600060443d1015612ef25790565b6040516003193d81016004833e81513d67ffffffffffffffff8160248401118184111715612f2257505050505090565b8285019150815181811115612f3a5750505050505090565b843d8701016020828501011115612f545750505050505090565b612f63602082860101876127e8565b509095945050505050565b8381526001600160a01b0383166020820152606060408201526000610a846060830184612bda565b60006101c0808352612fab8184018789612c82565b905084516001600160a01b03808251166020860152602082015160408601526040820151606086015260608201516080860152608082015160a08601528060a08301511660c08601525060c081015160e085015260e08101516101008501525060208501516101208401526040850151610140840152606085015161016084015260808501516101808401528281036101a084015261304a8185612bda565b979650505050505050565b60006020828403121561306757600080fd5b5051919050565b60008251612c5f818460208701612bb6565b6000808335601e1984360301811261309757600080fd5b830160208101925035905067ffffffffffffffff8111156130b757600080fd5b80360382131561278457600080fd5b60006101606130e5846130d88561282d565b6001600160a01b03169052565b602083013560208501526130fc6040840184613080565b82604087015261310f8387018284612c82565b925050506131206060840184613080565b8583036060870152613133838284612c82565b925050506080830135608085015260a083013560a085015260c083013560c085015260e083013560e085015261010080840135818601525061012061317a81850185613080565b8684038388015261318c848284612c82565b93505050506101406131a081850185613080565b8684038388015261304a848284612c82565b6040815260006131c560408301856130c6565b90508260208301529392505050565b6060815260006131e760608301866130c6565b60208301949094525060400152919050565b6000806040838503121561320c57600080fd5b825167ffffffffffffffff8082111561322457600080fd5b818501915085601f83011261323857600080fd5b81518181111561324a5761324a61278b565b6040519150613263601f8201601f1916602001836127e8565b80825286602082850101111561327857600080fd5b613289816020840160208601612bb6565b50602094909401519395939450505050565b8181036000831280158383131683831282161715612cfd57612cfd612b7d56fea164736f6c6343000811000a608060405234801561001057600080fd5b506101d7806100206000396000f3fe608060405234801561001057600080fd5b506004361061002b5760003560e01c8063570e1a3614610030575b600080fd5b61004361003e3660046100f9565b61006c565b60405173ffffffffffffffffffffffffffffffffffffffff909116815260200160405180910390f35b60008061007c601482858761016b565b61008591610195565b60601c90506000610099846014818861016b565b8080601f016020809104026020016040519081016040528093929190818152602001838380828437600092018290525084519495509360209350849250905082850182875af190506000519350806100f057600093505b50505092915050565b6000806020838503121561010c57600080fd5b823567ffffffffffffffff8082111561012457600080fd5b818501915085601f83011261013857600080fd5b81358181111561014757600080fd5b86602082850101111561015957600080fd5b60209290920196919550909350505050565b6000808585111561017b57600080fd5b8386111561018857600080fd5b5050820193919092039150565b6bffffffffffffffffffffffff1981358181169160148510156101c25780818660140360031b1b83161692505b50509291505056fea164736f6c6343000811000a",
  "linkReferences": {},
  "deployedLinkReferences": {}
}