{
  "_format": "hh-sol-artifact-1",
  "contractName": "EntryPoint",
  "sourceName": "contracts/EntryPoint.sol",
  "abi": [
    {
      "inputs": [
        {
          "internalType": "contract IVerifier",
          "name": "_verifier",
          "type": "address"
        }
      ],
      "stateMutability": "nonpayable",
      "type": "constructor"
    },
    {
      "inputs": [
        {
          "internalType": "uint256",
          "name": "preOpGas",
          "type": "uint256"
        },
        {
          "internalType": "uint256",
          "name": "paid",
          "type": "uint256"
        },
        {
          "internalType": "uint64",
          "name": "validAfter",
          "type": "uint64"
        },
        {
          "internalType": "uint64",
          "name": "validBefore",
          "type": "uint64"
        }
      ],
      "name": "ExecutionResult",
      "type": "error"
    },
    {
      "inputs": [
        {
          "internalType": "uint256",
          "name": "opIndex",
          "type": "uint256"
        },
        {
          "internalType": "address",
          "name": "paymaster",
          "type": "address"
        },
        {
          "internalType": "string",
          "name": "reason",
          "type": "string"
        }
      ],
      "name": "FailedOp",
      "type": "error"
    },
    {
      "inputs": [
        {
          "internalType": "address",
          "name": "sender",
          "type": "address"
        }
      ],
      "name": "SenderAddressResult",
      "type": "error"
    },
    {
      "inputs": [
        {
          "components": [
            {
              "internalType": "uint256",
              "name": "preOpGas",
              "type": "uint256"
            },
            {
              "internalType": "uint256",
              "name": "prefund",
              "type": "uint256"
            },
            {
              "internalType": "bool",
              "name": "sigFailed",
              "type": "bool"
            },
            {
              "internalType": "uint64",
              "name": "validAfter",
              "type": "uint64"
            },
            {
              "internalType": "uint64",
              "name": "validUntil",
              "type": "uint64"
            },
            {
              "internalType": "bytes",
              "name": "paymasterContext",
              "type": "bytes"
            }
          ],
          "internalType": "struct IEntryPoint.ReturnInfo",
          "name": "returnInfo",
          "type": "tuple"
        },
        {
          "components": [
            {
              "internalType": "uint256",
              "name": "stake",
              "type": "uint256"
            },
            {
              "internalType": "uint256",
              "name": "unstakeDelaySec",
              "type": "uint256"
            }
          ],
          "internalType": "struct IStakeManager.StakeInfo",
          "name": "senderInfo",
          "type": "tuple"
        },
        {
          "components": [
            {
              "internalType": "uint256",
              "name": "stake",
              "type": "uint256"
            },
            {
              "internalType": "uint256",
              "name": "unstakeDelaySec",
              "type": "uint256"
            }
          ],
          "internalType": "struct IStakeManager.StakeInfo",
          "name": "factoryInfo",
          "type": "tuple"
        },
        {
          "components": [
            {
              "internalType": "uint256",
              "name": "stake",
              "type": "uint256"
            },
            {
              "internalType": "uint256",
              "name": "unstakeDelaySec",
              "type": "uint256"
            }
          ],
          "internalType": "struct IStakeManager.StakeInfo",
          "name": "paymasterInfo",
          "type": "tuple"
        }
      ],
      "name": "ValidationResult",
      "type": "error"
    },
    {
      "anonymous": false,
      "inputs": [
        {
          "indexed": true,
          "internalType": "bytes32",
          "name": "userOpHash",
          "type": "bytes32"
        },
        {
          "indexed": true,
          "internalType": "address",
          "name": "sender",
          "type": "address"
        },
        {
          "indexed": false,
          "internalType": "address",
          "name": "factory",
          "type": "address"
        },
        {
          "indexed": false,
          "internalType": "address",
          "name": "paymaster",
          "type": "address"
        }
      ],
      "name": "AccountDeployed",
      "type": "event"
    },
    {
      "anonymous": false,
      "inputs": [
        {
          "indexed": true,
          "internalType": "address",
          "name": "account",
          "type": "address"
        },
        {
          "indexed": false,
          "internalType": "uint256",
          "name": "totalDeposit",
          "type": "uint256"
        }
      ],
      "name": "Deposited",
      "type": "event"
    },
    {
      "anonymous": false,
      "inputs": [
        {
          "indexed": true,
          "internalType": "address",
          "name": "account",
          "type": "address"
        },
        {
          "indexed": false,
          "internalType": "uint256",
          "name": "totalStaked",
          "type": "uint256"
        },
        {
          "indexed": false,
          "internalType": "uint256",
          "name": "withdrawTime",
          "type": "uint256"
        }
      ],
      "name": "StakeLocked",
      "type": "event"
    },
    {
      "anonymous": false,
      "inputs": [
        {
          "indexed": true,
          "internalType": "address",
          "name": "account",
          "type": "address"
        },
        {
          "indexed": false,
          "internalType": "uint256",
          "name": "withdrawTime",
          "type": "uint256"
        }
      ],
      "name": "StakeUnlocked",
      "type": "event"
    },
    {
      "anonymous": false,
      "inputs": [
        {
          "indexed": true,
          "internalType": "address",
          "name": "account",
          "type": "address"
        },
        {
          "indexed": false,
          "internalType": "address",
          "name": "withdrawAddress",
          "type": "address"
        },
        {
          "indexed": false,
          "internalType": "uint256",
          "name": "amount",
          "type": "uint256"
        }
      ],
      "name": "StakeWithdrawn",
      "type": "event"
    },
    {
      "anonymous": false,
      "inputs": [
        {
          "indexed": true,
          "internalType": "bytes32",
          "name": "userOpHash",
          "type": "bytes32"
        },
        {
          "indexed": true,
          "internalType": "address",
          "name": "sender",
          "type": "address"
        },
        {
          "indexed": true,
          "internalType": "address",
          "name": "paymaster",
          "type": "address"
        },
        {
          "indexed": false,
          "internalType": "uint256",
          "name": "nonce",
          "type": "uint256"
        },
        {
          "indexed": false,
          "internalType": "bool",
          "name": "success",
          "type": "bool"
        },
        {
          "indexed": false,
          "internalType": "uint256",
          "name": "actualGasCost",
          "type": "uint256"
        },
        {
          "indexed": false,
          "internalType": "uint256",
          "name": "actualGasUsed",
          "type": "uint256"
        }
      ],
      "name": "UserOperationEvent",
      "type": "event"
    },
    {
      "anonymous": false,
      "inputs": [
        {
          "indexed": true,
          "internalType": "bytes32",
          "name": "userOpHash",
          "type": "bytes32"
        },
        {
          "indexed": true,
          "internalType": "address",
          "name": "sender",
          "type": "address"
        },
        {
          "indexed": false,
          "internalType": "uint256",
          "name": "nonce",
          "type": "uint256"
        },
        {
          "indexed": false,
          "internalType": "bytes",
          "name": "revertReason",
          "type": "bytes"
        }
      ],
      "name": "UserOperationRevertReason",
      "type": "event"
    },
    {
      "anonymous": false,
      "inputs": [
        {
          "indexed": true,
          "internalType": "address",
          "name": "account",
          "type": "address"
        },
        {
          "indexed": false,
          "internalType": "address",
          "name": "withdrawAddress",
          "type": "address"
        },
        {
          "indexed": false,
          "internalType": "uint256",
          "name": "amount",
          "type": "uint256"
        }
      ],
      "name": "Withdrawn",
      "type": "event"
    },
    {
      "inputs": [],
      "name": "SIG_VALIDATION_FAILED",
      "outputs": [
        {
          "internalType": "uint256",
          "name": "",
          "type": "uint256"
        }
      ],
      "stateMutability": "view",
      "type": "function"
    },
    {
      "inputs": [
        {
          "internalType": "uint32",
          "name": "_unstakeDelaySec",
          "type": "uint32"
        }
      ],
      "name": "addStake",
      "outputs": [],
      "stateMutability": "payable",
      "type": "function"
    },
    {
      "inputs": [
        {
          "internalType": "address",
          "name": "account",
          "type": "address"
        }
      ],
      "name": "balanceOf",
      "outputs": [
        {
          "internalType": "uint256",
          "name": "",
          "type": "uint256"
        }
      ],
      "stateMutability": "view",
      "type": "function"
    },
    {
      "inputs": [
        {
          "internalType": "address",
          "name": "account",
          "type": "address"
        }
      ],
      "name": "depositTo",
      "outputs": [],
      "stateMutability": "payable",
      "type": "function"
    },
    {
      "inputs": [
        {
          "internalType": "address",
          "name": "",
          "type": "address"
        }
      ],
      "name": "deposits",
      "outputs": [
        {
          "internalType": "uint112",
          "name": "deposit",
          "type": "uint112"
        },
        {
          "internalType": "bool",
          "name": "staked",
          "type": "bool"
        },
        {
          "internalType": "uint112",
          "name": "stake",
          "type": "uint112"
        },
        {
          "internalType": "uint32",
          "name": "unstakeDelaySec",
          "type": "uint32"
        },
        {
          "internalType": "uint64",
          "name": "withdrawTime",
          "type": "uint64"
        }
      ],
      "stateMutability": "view",
      "type": "function"
    },
    {
      "inputs": [
        {
          "internalType": "address",
          "name": "account",
          "type": "address"
        }
      ],
      "name": "getDepositInfo",
      "outputs": [
        {
          "components": [
            {
              "internalType": "uint112",
              "name": "deposit",
              "type": "uint112"
            },
            {
              "internalType": "bool",
              "name": "staked",
              "type": "bool"
            },
            {
              "internalType": "uint112",
              "name": "stake",
              "type": "uint112"
            },
            {
              "internalType": "uint32",
              "name": "unstakeDelaySec",
              "type": "uint32"
            },
            {
              "internalType": "uint64",
              "name": "withdrawTime",
              "type": "uint64"
            }
          ],
          "internalType": "struct IStakeManager.DepositInfo",
          "name": "info",
          "type": "tuple"
        }
      ],
      "stateMutability": "view",
      "type": "function"
    },
    {
      "inputs": [
        {
          "internalType": "bytes",
          "name": "initCode",
          "type": "bytes"
        }
      ],
      "name": "getSenderAddress",
      "outputs": [],
      "stateMutability": "nonpayable",
      "type": "function"
    },
    {
      "inputs": [
        {
          "components": [
            {
              "internalType": "address",
              "name": "sender",
              "type": "address"
            },
            {
              "internalType": "uint256",
              "name": "nonce",
              "type": "uint256"
            },
            {
              "internalType": "bytes",
              "name": "initCode",
              "type": "bytes"
            },
            {
              "internalType": "bytes",
              "name": "callData",
              "type": "bytes"
            },
            {
              "internalType": "uint256",
              "name": "callGasLimit",
              "type": "uint256"
            },
            {
              "internalType": "uint256",
              "name": "verificationGasLimit",
              "type": "uint256"
            },
            {
              "internalType": "uint256",
              "name": "preVerificationGas",
              "type": "uint256"
            },
            {
              "internalType": "uint256",
              "name": "maxFeePerGas",
              "type": "uint256"
            },
            {
              "internalType": "uint256",
              "name": "maxPriorityFeePerGas",
              "type": "uint256"
            },
            {
              "internalType": "bytes",
              "name": "paymasterAndData",
              "type": "bytes"
            },
            {
              "internalType": "bytes",
              "name": "signature",
              "type": "bytes"
            }
          ],
          "internalType": "struct UserOperation",
          "name": "userOp",
          "type": "tuple"
        }
      ],
      "name": "getUserOpHash",
      "outputs": [
        {
          "internalType": "bytes32",
          "name": "",
          "type": "bytes32"
        }
      ],
      "stateMutability": "view",
      "type": "function"
    },
    {
      "inputs": [
        {
          "components": [
            {
              "internalType": "address",
              "name": "sender",
              "type": "address"
            },
            {
              "internalType": "uint256",
              "name": "nonce",
              "type": "uint256"
            },
            {
              "internalType": "bytes",
              "name": "initCode",
              "type": "bytes"
            },
            {
              "internalType": "bytes",
              "name": "callData",
              "type": "bytes"
            },
            {
              "internalType": "uint256",
              "name": "callGasLimit",
              "type": "uint256"
            },
            {
              "internalType": "uint256",
              "name": "verificationGasLimit",
              "type": "uint256"
            },
            {
              "internalType": "uint256",
              "name": "preVerificationGas",
              "type": "uint256"
            },
            {
              "internalType": "uint256",
              "name": "maxFeePerGas",
              "type": "uint256"
            },
            {
              "internalType": "uint256",
              "name": "maxPriorityFeePerGas",
              "type": "uint256"
            },
            {
              "internalType": "bytes",
              "name": "paymasterAndData",
              "type": "bytes"
            },
            {
              "internalType": "bytes",
              "name": "signature",
              "type": "bytes"
            }
          ],
          "internalType": "struct UserOperation[]",
          "name": "ops",
          "type": "tuple[]"
        },
        {
          "internalType": "bytes",
          "name": "proof",
          "type": "bytes"
        },
        {
          "internalType": "uint256[]",
          "name": "pubSignals",
          "type": "uint256[]"
        },
        {
          "internalType": "address payable",
          "name": "beneficiary",
          "type": "address"
        }
      ],
      "name": "handleOps",
      "outputs": [],
      "stateMutability": "nonpayable",
      "type": "function"
    },
    {
      "inputs": [
        {
          "internalType": "bytes",
          "name": "callData",
          "type": "bytes"
        },
        {
          "components": [
            {
              "components": [
                {
                  "internalType": "address",
                  "name": "sender",
                  "type": "address"
                },
                {
                  "internalType": "uint256",
                  "name": "nonce",
                  "type": "uint256"
                },
                {
                  "internalType": "uint256",
                  "name": "callGasLimit",
                  "type": "uint256"
                },
                {
                  "internalType": "uint256",
                  "name": "verificationGasLimit",
                  "type": "uint256"
                },
                {
                  "internalType": "uint256",
                  "name": "preVerificationGas",
                  "type": "uint256"
                },
                {
                  "internalType": "address",
                  "name": "paymaster",
                  "type": "address"
                },
                {
                  "internalType": "uint256",
                  "name": "maxFeePerGas",
                  "type": "uint256"
                },
                {
                  "internalType": "uint256",
                  "name": "maxPriorityFeePerGas",
                  "type": "uint256"
                }
              ],
              "internalType": "struct EntryPoint.MemoryUserOp",
              "name": "mUserOp",
              "type": "tuple"
            },
            {
              "internalType": "bytes32",
              "name": "userOpHash",
              "type": "bytes32"
            },
            {
              "internalType": "uint256",
              "name": "prefund",
              "type": "uint256"
            },
            {
              "internalType": "uint256",
              "name": "contextOffset",
              "type": "uint256"
            },
            {
              "internalType": "uint256",
              "name": "preOpGas",
              "type": "uint256"
            }
          ],
          "internalType": "struct EntryPoint.UserOpInfo",
          "name": "opInfo",
          "type": "tuple"
        },
        {
          "internalType": "bytes",
          "name": "context",
          "type": "bytes"
        }
      ],
      "name": "innerHandleOp",
      "outputs": [
        {
          "internalType": "uint256",
          "name": "actualGasCost",
          "type": "uint256"
        }
      ],
      "stateMutability": "nonpayable",
      "type": "function"
    },
    {
      "inputs": [
        {
          "components": [
            {
              "internalType": "address",
              "name": "sender",
              "type": "address"
            },
            {
              "internalType": "uint256",
              "name": "nonce",
              "type": "uint256"
            },
            {
              "internalType": "bytes",
              "name": "initCode",
              "type": "bytes"
            },
            {
              "internalType": "bytes",
              "name": "callData",
              "type": "bytes"
            },
            {
              "internalType": "uint256",
              "name": "callGasLimit",
              "type": "uint256"
            },
            {
              "internalType": "uint256",
              "name": "verificationGasLimit",
              "type": "uint256"
            },
            {
              "internalType": "uint256",
              "name": "preVerificationGas",
              "type": "uint256"
            },
            {
              "internalType": "uint256",
              "name": "maxFeePerGas",
              "type": "uint256"
            },
            {
              "internalType": "uint256",
              "name": "maxPriorityFeePerGas",
              "type": "uint256"
            },
            {
              "internalType": "bytes",
              "name": "paymasterAndData",
              "type": "bytes"
            },
            {
              "internalType": "bytes",
              "name": "signature",
              "type": "bytes"
            }
          ],
          "internalType": "struct UserOperation",
          "name": "op",
          "type": "tuple"
        }
      ],
      "name": "simulateHandleOp",
      "outputs": [],
      "stateMutability": "nonpayable",
      "type": "function"
    },
    {
      "inputs": [
        {
          "components": [
            {
              "internalType": "address",
              "name": "sender",
              "type": "address"
            },
            {
              "internalType": "uint256",
              "name": "nonce",
              "type": "uint256"
            },
            {
              "internalType": "bytes",
              "name": "initCode",
              "type": "bytes"
            },
            {
              "internalType": "bytes",
              "name": "callData",
              "type": "bytes"
            },
            {
              "internalType": "uint256",
              "name": "callGasLimit",
              "type": "uint256"
            },
            {
              "internalType": "uint256",
              "name": "verificationGasLimit",
              "type": "uint256"
            },
            {
              "internalType": "uint256",
              "name": "preVerificationGas",
              "type": "uint256"
            },
            {
              "internalType": "uint256",
              "name": "maxFeePerGas",
              "type": "uint256"
            },
            {
              "internalType": "uint256",
              "name": "maxPriorityFeePerGas",
              "type": "uint256"
            },
            {
              "internalType": "bytes",
              "name": "paymasterAndData",
              "type": "bytes"
            },
            {
              "internalType": "bytes",
              "name": "signature",
              "type": "bytes"
            }
          ],
          "internalType": "struct UserOperation",
          "name": "userOp",
          "type": "tuple"
        }
      ],
      "name": "simulateValidation",
      "outputs": [],
      "stateMutability": "nonpayable",
      "type": "function"
    },
    {
      "inputs": [],
      "name": "unlockStake",
      "outputs": [],
      "stateMutability": "nonpayable",
      "type": "function"
    },
    {
      "inputs": [],
      "name": "verifier",
      "outputs": [
        {
          "internalType": "contract IVerifier",
          "name": "",
          "type": "address"
        }
      ],
      "stateMutability": "view",
      "type": "function"
    },
    {
      "inputs": [
        {
          "internalType": "address payable",
          "name": "withdrawAddress",
          "type": "address"
        }
      ],
      "name": "withdrawStake",
      "outputs": [],
      "stateMutability": "nonpayable",
      "type": "function"
    },
    {
      "inputs": [
        {
          "internalType": "address payable",
          "name": "withdrawAddress",
          "type": "address"
        },
        {
          "internalType": "uint256",
          "name": "withdrawAmount",
          "type": "uint256"
        }
      ],
      "name": "withdrawTo",
      "outputs": [],
      "stateMutability": "nonpayable",
      "type": "function"
    },
    {
      "stateMutability": "payable",
      "type": "receive"
    }
  ],
  "bytecode": "0x60c060405260405162000012906200007e565b604051809103906000f0801580156200002f573d6000803e3d6000fd5b506001600160a01b03166080523480156200004957600080fd5b5060405162003397380380620033978339810160408190526200006c916200008c565b6001600160a01b031660a052620000be565b6101f780620031a083390190565b6000602082840312156200009f57600080fd5b81516001600160a01b0381168114620000b757600080fd5b9392505050565b60805160a0516130b5620000eb6000396000610184015260008181610b5a01526122bd01526130b56000f3fe6080604052600436106100f75760003560e01c8063a61935311161008a578063c23a5cea11610059578063c23a5cea146103bb578063ee219423146103db578063f3226685146103fb578063fc7e286d1461041b57600080fd5b8063a619353114610353578063b760faf914610373578063bb9fe6bf14610386578063c20771161461039b57600080fd5b80635287ce12116100c65780635287ce12146101be57806370a08231146102df5780638f41ec5a1461031e5780639b249f691461033357600080fd5b80630396cb601461010c5780631d7327561461011f578063205c2878146101525780632b7ac3f31461017257600080fd5b3661010757610105336104d4565b005b600080fd5b61010561011a36600461258b565b61053b565b34801561012b57600080fd5b5061013f61013a3660046126b3565b6107fc565b6040519081526020015b60405180910390f35b34801561015e57600080fd5b5061010561016d3660046127f7565b6109b5565b34801561017e57600080fd5b506101a67f000000000000000000000000000000000000000000000000000000000000000081565b6040516001600160a01b039091168152602001610149565b3480156101ca57600080fd5b506102856101d9366004612823565b6040805160a081018252600080825260208201819052918101829052606081018290526080810191909152506001600160a01b031660009081526020818152604091829020825160a08101845281546001600160701b038082168352600160701b820460ff16151594830194909452600160781b90049092169282019290925260019091015463ffffffff81166060830152640100000000900467ffffffffffffffff16608082015290565b6040805182516001600160701b03908116825260208085015115159083015283830151169181019190915260608083015163ffffffff169082015260809182015167ffffffffffffffff169181019190915260a001610149565b3480156102eb57600080fd5b5061013f6102fa366004612823565b6001600160a01b03166000908152602081905260409020546001600160701b031690565b34801561032a57600080fd5b5061013f600181565b34801561033f57600080fd5b5061010561034e366004612840565b610b43565b34801561035f57600080fd5b5061013f61036e366004612882565b610bf9565b610105610381366004612823565b6104d4565b34801561039257600080fd5b50610105610c3b565b3480156103a757600080fd5b506101056103b6366004612882565b610d92565b3480156103c757600080fd5b506101056103d6366004612823565b610e1a565b3480156103e757600080fd5b506101056103f6366004612882565b611076565b34801561040757600080fd5b50610105610416366004612903565b61124e565b34801561042757600080fd5b5061048c610436366004612823565b600060208190529081526040902080546001909101546001600160701b0380831692600160701b810460ff1692600160781b9091049091169063ffffffff811690640100000000900467ffffffffffffffff1685565b604080516001600160701b0396871681529415156020860152929094169183019190915263ffffffff16606082015267ffffffffffffffff909116608082015260a001610149565b6104de813461137f565b6001600160a01b03811660008181526020818152604091829020805492516001600160701b03909316835292917f2da466a7b24304f47e87fa2e1e5a81b9831ce54fec19055ce277ca2f39ba42c491015b60405180910390a25050565b33600090815260208190526040902063ffffffff82166105a25760405162461bcd60e51b815260206004820152601a60248201527f6d757374207370656369667920756e7374616b652064656c617900000000000060448201526064015b60405180910390fd5b600181015463ffffffff90811690831610156106005760405162461bcd60e51b815260206004820152601c60248201527f63616e6e6f7420646563726561736520756e7374616b652074696d65000000006044820152606401610599565b8054600090610620903490600160781b90046001600160701b03166129c7565b9050600081116106725760405162461bcd60e51b815260206004820152601260248201527f6e6f207374616b652073706563696669656400000000000000000000000000006044820152606401610599565b6001600160701b0381106106c85760405162461bcd60e51b815260206004820152600e60248201527f7374616b65206f766572666c6f770000000000000000000000000000000000006044820152606401610599565b6040805160a08101825283546001600160701b0390811682526001602080840182815286841685870190815263ffffffff808b16606088019081526000608089018181523380835296829052908a902098518954955194518916600160781b027fffffff0000000000000000000000000000ffffffffffffffffffffffffffffff951515600160701b026effffffffffffffffffffffffffffff199097169190991617949094179290921695909517865551949092018054925167ffffffffffffffff16640100000000026bffffffffffffffffffffffff19909316949093169390931717905590517fa5ae833d0bb1dcd632d98a8b70973e8516812898e19bf27b70071ebc8dc52c01906107ef908490879091825263ffffffff16602082015260400190565b60405180910390a2505050565b6000805a90503330146108515760405162461bcd60e51b815260206004820152601760248201527f4141393220696e7465726e616c2063616c6c206f6e6c790000000000000000006044820152606401610599565b8451604081015160608201518101611388015a101561087b5763deaddead60e01b60005260206000fd5b600088156109525760008084600001516001600160a01b0316848d8d6040516108a59291906129da565b60006040518083038160008787f1925050503d80600081146108e3576040519150601f19603f3d011682016040523d82523d6000602084013e6108e8565b606091505b50915091508161094f5780511561094a5784600001516001600160a01b03168a602001517f1c4fada7374c0a9ee8841fc38afe82932dc0f8e69012e927f061a8bae611a201876020015184604051610941929190612a3a565b60405180910390a35b600192505b50505b600088608001515a86030190506109a46000838b8b8b8080601f01602080910402602001604051908101604052809392919081815260200183838082843760009201919091525088925061142f915050565b955050505050505b95945050505050565b33600090815260208190526040902080546001600160701b0316821115610a1e5760405162461bcd60e51b815260206004820152601960248201527f576974686472617720616d6f756e7420746f6f206c61726765000000000000006044820152606401610599565b8054610a349083906001600160701b0316612a53565b81546dffffffffffffffffffffffffffff19166001600160701b0391909116178155604080516001600160a01b03851681526020810184905233917fd1c19fbcd4551a5edfb66d43d2e337c04837afda3482b42bdf569a8fccdae5fb910160405180910390a26000836001600160a01b03168360405160006040518083038185875af1925050503d8060008114610ae7576040519150601f19603f3d011682016040523d82523d6000602084013e610aec565b606091505b5050905080610b3d5760405162461bcd60e51b815260206004820152601260248201527f6661696c656420746f20776974686472617700000000000000000000000000006044820152606401610599565b50505050565b604051632b870d1b60e11b81526001600160a01b037f0000000000000000000000000000000000000000000000000000000000000000169063570e1a3690610b919085908590600401612a8f565b6020604051808303816000875af1158015610bb0573d6000803e3d6000fd5b505050506040513d601f19601f82011682018060405250810190610bd49190612aa3565b604051633653dc0360e11b81526001600160a01b039091166004820152602401610599565b6000610c048261172e565b6040805160208101929092523090820152466060820152608001604051602081830303815290604052805190602001209050919050565b3360009081526020819052604081206001810154909163ffffffff9091169003610ca75760405162461bcd60e51b815260206004820152600a60248201527f6e6f74207374616b6564000000000000000000000000000000000000000000006044820152606401610599565b8054600160701b900460ff16610cff5760405162461bcd60e51b815260206004820152601160248201527f616c726561647920756e7374616b696e670000000000000000000000000000006044820152606401610599565b6001810154600090610d179063ffffffff1642612ac0565b6001830180546bffffffffffffffff00000000191664010000000067ffffffffffffffff84169081029190911790915583546eff00000000000000000000000000001916845560405190815290915033907ffa9b3c14cc825c412c9ed81b3ba365a5b459439403f18829e572ed53a4180f0a9060200161052f565b610d9a612501565b600080610da960008585611747565b91509150600080610dba84846118db565b9250925050610dc843600052565b6000610dd660008888611958565b60808701516040516366c5612360e11b815260048101919091526024810182905267ffffffffffffffff808616604483015284166064820152909150608401610599565b3360009081526020819052604090208054600160781b90046001600160701b031680610e885760405162461bcd60e51b815260206004820152601460248201527f4e6f207374616b6520746f2077697468647261770000000000000000000000006044820152606401610599565b6001820154640100000000900467ffffffffffffffff16610eeb5760405162461bcd60e51b815260206004820152601d60248201527f6d7573742063616c6c20756e6c6f636b5374616b6528292066697273740000006044820152606401610599565b60018201544264010000000090910467ffffffffffffffff161115610f525760405162461bcd60e51b815260206004820152601b60248201527f5374616b65207769746864726177616c206973206e6f742064756500000000006044820152606401610599565b6001820180546bffffffffffffffffffffffff1916905581547fffffff0000000000000000000000000000ffffffffffffffffffffffffffffff168255604080516001600160a01b03851681526020810183905233917fb7c918e0e249f999e965cafeb6c664271b3f4317d296461500e71da39f0cbda3910160405180910390a26000836001600160a01b03168260405160006040518083038185875af1925050503d8060008114611020576040519150601f19603f3d011682016040523d82523d6000602084013e611025565b606091505b5050905080610b3d5760405162461bcd60e51b815260206004820152601860248201527f6661696c656420746f207769746864726177207374616b6500000000000000006044820152606401610599565b61107e612501565b60008061108d60008585611747565b845160a00151604080518082018252600080825260208083018281526001600160a01b03958616835282825284832080546001600160701b03600160781b918290048116875260019283015463ffffffff9081169094528d51518851808a018a5287815280870188815291909a1687528686528887208054939093049091168952910154909116905283518085019094528184528301529395509193509036600061113b60408a018a612ae8565b90925090506000601482101561115257600061116d565b611160601460008486612b2f565b61116991612b59565b60601c5b604080518082018252600080825260208083018281526001600160a01b0386168352908290529290208054600160781b90046001600160701b031682526001015463ffffffff16909152909150935050505060008060006111ce88886118db565b92509250925060006040518060c001604052808b6080015181526020018b60400151815260200185151581526020018467ffffffffffffffff1681526020018367ffffffffffffffff1681526020016112288c6060015190565b81525090508086868960405163f04297e960e01b81526004016105999493929190612b8e565b8560008167ffffffffffffffff81111561126a5761126a612601565b6040519080825280602002602001820160405280156112a357816020015b611290612501565b8152602001906001900390816112885790505b50905060005b828110156113085760008282815181106112c5576112c5612c33565b602002602001015190506112fd828c8c858181106112e5576112e5612c33565b90506020028101906112f79190612c49565b83611747565b5050506001016112a9565b506000805b838110156113685761135c818c8c8481811061132b5761132b612c33565b905060200281019061133d9190612c49565b85848151811061134f5761134f612c33565b6020026020010151611958565b9091019060010161130d565b506113738482611aa0565b50505050505050505050565b6001600160a01b038216600090815260208190526040812080549091906113b09084906001600160701b03166129c7565b90506001600160701b038111156114095760405162461bcd60e51b815260206004820152601060248201527f6465706f736974206f766572666c6f77000000000000000000000000000000006044820152606401610599565b81546dffffffffffffffffffffffffffff19166001600160701b03919091161790555050565b6000805a85519091506000908161144582611b9e565b60a08301519091506001600160a01b0381166114645782519350611606565b80935060008851111561160657868202955060028a600281111561148a5761148a612c6a565b146114fc57606083015160405163a9a2340960e01b81526001600160a01b0383169163a9a23409916114c4908e908d908c90600401612c80565b600060405180830381600088803b1580156114de57600080fd5b5087f11580156114f2573d6000803e3d6000fd5b5050505050611606565b606083015160405163a9a2340960e01b81526001600160a01b0383169163a9a2340991611531908e908d908c90600401612c80565b600060405180830381600088803b15801561154b57600080fd5b5087f19350505050801561155d575060015b61160657611569612cc7565b806308c379a0036115a6575061157d612ce3565b8061158857506115a8565b8b828260405162fa072b60e01b815260040161059993929190612d6d565b505b60405162fa072b60e01b8152600481018c90526001600160a01b038216602482015260606044820152601160648201527f41353020706f73744f7020726576657274000000000000000000000000000000608482015260a401610599565b5a8503870196508187029550858960400151101561167c5760405162fa072b60e01b8152600481018c90526001600160a01b038216602482015260606044820152601f60648201527f4135312070726566756e642062656c6f772061637475616c476173436f737400608482015260a401610599565b604089015186900361168e858261137f565b6000808c60028111156116a3576116a3612c6a565b1490508460a001516001600160a01b031685600001516001600160a01b03168c602001517f49628fd1471006c1482da88028e9ce4dbb080b815c9b0344d39e5a8e6ec1419f8860200151858d8f604051611716949392919093845291151560208401526040830152606082015260800190565b60405180910390a45050505050505095945050505050565b600061173982611bce565b805190602001209050919050565b60008060005a845190915061175c8682611c0d565b61176586610bf9565b6020860152604081015160608201516080830151171760e087013517610100870135176effffffffffffffffffffffffffffff8111156117e75760405162461bcd60e51b815260206004820152601860248201527f41413934206761732076616c756573206f766572666c6f7700000000000000006044820152606401610599565b6000806117f384611d06565b90506118018a8a8a84611d54565b9750915061180e43600052565b60a08401516060906001600160a01b031615611836576118318b8b8b8587611fa0565b975090505b60005a87039050808b60a0013510156118ad5760a086015160405162fa072b60e01b8152600481018e90526001600160a01b03909116602482015260606044820152601e60648201527f41413430206f76657220766572696669636174696f6e4761734c696d69740000608482015260a401610599565b60408a018390528160608b015260c08b01355a8803018a608001818152505050505050505050935093915050565b60008060006118e9856121ee565b91945092509050600080806118fd876121ee565b925092509250858061190c5750825b95508167ffffffffffffffff168567ffffffffffffffff16101561192e578194505b8067ffffffffffffffff168467ffffffffffffffff16111561194e578093505b5050509250925092565b6000805a9050600061196b846060015190565b905030631d7327566119806060880188612ae8565b87856040518563ffffffff1660e01b81526004016119a19493929190612d95565b6020604051808303816000875af19250505080156119dc575060408051601f3d908101601f191682019092526119d991810190612e54565b60015b611a9457600060206000803e50600051632152215360e01b8101611a5f57845160a0015160405162fa072b60e01b8152600481018990526001600160a01b03909116602482015260606044820152600f60648201527f41413935206f7574206f66206761730000000000000000000000000000000000608482015260a401610599565b600085608001515a611a719086612a53565b611a7b91906129c7565b9050611a8b88600288868561142f565b94505050611a97565b92505b50509392505050565b6001600160a01b038216611af65760405162461bcd60e51b815260206004820152601860248201527f4141393020696e76616c69642062656e656669636961727900000000000000006044820152606401610599565b6000826001600160a01b03168260405160006040518083038185875af1925050503d8060008114611b43576040519150601f19603f3d011682016040523d82523d6000602084013e611b48565b606091505b5050905080611b995760405162461bcd60e51b815260206004820152601f60248201527f41413931206661696c65642073656e6420746f2062656e6566696369617279006044820152606401610599565b505050565b60c081015160e082015160009190808203611bba575092915050565b611bc682488301612214565b949350505050565b6060366000611be1610140850185612ae8565b915091508360208184030360405194506020810185016040528085528082602087013750505050919050565b611c1a6020830183612823565b6001600160a01b0316815260208083013590820152608080830135604083015260a0830135606083015260c0808401359183019190915260e0808401359183019190915261010083013590820152366000611c79610120850185612ae8565b90925090508015611cf9576014811015611cd55760405162461bcd60e51b815260206004820152601d60248201527f4141393320696e76616c6964207061796d6173746572416e64446174610000006044820152606401610599565b611ce3601460008385612b2f565b611cec91612b59565b60601c60a0840152610b3d565b600060a084015250505050565b60a081015160009081906001600160a01b0316611d24576001611d27565b60035b60ff1690506000836080015182856060015102856040015101019050611d4c84611b9e565b029392505050565b60008060005a8551805191925090611d798988611d7460408c018c612ae8565b61222e565b60a08201516000906001600160a01b038116611dc7576001600160a01b0383166000908152602081905260409020546001600160701b0316888111611dc057808903611dc3565b60005b9250505b606084015160405163eeadd25560e01b81526001600160a01b0385169163eeadd25591611dfa908e908790600401612f9f565b60206040518083038160008887f193505050508015611e36575060408051601f3d908101601f19168201909252611e3391810190612e54565b60015b611ed857611e42612cc7565b806308c379a003611e805750611e56612ce3565b80611e615750611e82565b8b60008260405162fa072b60e01b815260040161059993929190612d6d565b505b60405162fa072b60e01b8152600481018c90526000602482015260606044820152601660648201527f4141323320726576657274656420286f72204f4f472900000000000000000000608482015260a401610599565b95506001600160a01b038116611f8d576001600160a01b038316600090815260208190526040902080546001600160701b0316808a1115611f695760405162fa072b60e01b8152600481018e90526000602482015260606044820152601760648201527f41413231206469646e2774207061792070726566756e64000000000000000000608482015260a401610599565b81546dffffffffffffffffffffffffffff1916908a90036001600160701b03161790555b5a85039650505050505094509492505050565b82516060818101519091600091848111611ffc5760405162461bcd60e51b815260206004820152601f60248201527f4141343120746f6f206c6974746c6520766572696669636174696f6e476173006044820152606401610599565b60a08201516001600160a01b038116600090815260208190526040902080548784039291906001600160701b0316898110156120905760405162fa072b60e01b8152600481018e90526001600160a01b038416602482015260606044820152601e60648201527f41413331207061796d6173746572206465706f73697420746f6f206c6f770000608482015260a401610599565b8981038260000160006101000a8154816001600160701b0302191690836001600160701b03160217905550826001600160a01b031663f465c77e858e8e602001518e6040518563ffffffff1660e01b81526004016120f093929190612fc1565b60006040518083038160008887f19350505050801561213157506040513d6000823e601f3d908101601f1916820160405261212e9190810190612fe6565b60015b6121da5761213d612cc7565b806308c379a00361217a5750612151612ce3565b8061215c575061217c565b8d848260405162fa072b60e01b815260040161059993929190612d6d565b505b60405162fa072b60e01b8152600481018e90526001600160a01b038416602482015260606044820152601660648201527f4141333320726576657274656420286f72204f4f472900000000000000000000608482015260a401610599565b909e909d509b505050505050505050505050565b60ff811615156000806122066001600886901c613088565b929460489490941c93915050565b60008183106122235781612225565b825b90505b92915050565b8015610b3d578251516001600160a01b0381163b1561229d5760405162fa072b60e01b8152600481018690526000602482015260606044820152601f60648201527f414131302073656e64657220616c726561647920636f6e737472756374656400608482015260a401610599565b835160600151604051632b870d1b60e11b81526000916001600160a01b037f0000000000000000000000000000000000000000000000000000000000000000169163570e1a3691906122f59088908890600401612a8f565b60206040518083038160008887f1158015612314573d6000803e3d6000fd5b50505050506040513d601f19601f820116820180604052508101906123399190612aa3565b90506001600160a01b03811661239f5760405162fa072b60e01b8152600481018790526000602482015260606044820152601b60648201527f4141313320696e6974436f6465206661696c6564206f72204f4f470000000000608482015260a401610599565b816001600160a01b0316816001600160a01b03161461240e5760405162fa072b60e01b8152600481018790526000602482015260606044820152602060648201527f4141313420696e6974436f6465206d7573742072657475726e2073656e646572608482015260a401610599565b806001600160a01b03163b6000036124765760405162fa072b60e01b8152600481018790526000602482015260606044820152602060648201527f4141313520696e6974436f6465206d757374206372656174652073656e646572608482015260a401610599565b60006124856014828688612b2f565b61248e91612b59565b60601c9050826001600160a01b031686602001517fd51a9c61267aa6196961883ecf5ff2da6619c37dac0fa92122513fb32c032d2d83896000015160a001516040516124f09291906001600160a01b0392831681529116602082015260400190565b60405180910390a350505050505050565b6040518060a0016040528061256660405180610100016040528060006001600160a01b031681526020016000815260200160008152602001600081526020016000815260200160006001600160a01b0316815260200160008152602001600081525090565b8152602001600080191681526020016000815260200160008152602001600081525090565b60006020828403121561259d57600080fd5b813563ffffffff811681146125b157600080fd5b9392505050565b60008083601f8401126125ca57600080fd5b50813567ffffffffffffffff8111156125e257600080fd5b6020830191508360208285010111156125fa57600080fd5b9250929050565b634e487b7160e01b600052604160045260246000fd5b60a0810181811067ffffffffffffffff8211171561263757612637612601565b60405250565b610100810181811067ffffffffffffffff8211171561263757612637612601565b601f8201601f1916810167ffffffffffffffff8111828210171561268457612684612601565b6040525050565b6001600160a01b03811681146126a057600080fd5b50565b80356126ae8161268b565b919050565b60008060008060008587036101c08112156126cd57600080fd5b863567ffffffffffffffff808211156126e557600080fd5b6126f18a838b016125b8565b9098509650601f19929092019161018091508183121561271057600080fd5b60405161271c81612617565b6101008085121561272c57600080fd5b604051945061273a8561263d565b61274660208c016126a3565b855260408b0135602086015260608b0135604086015260808b0135606086015260a08b0135608086015261277c60c08c016126a3565b60a086015260e08b81013560c0870152908b0135908501529283526101208901356020840152610140890135604084015261016089013560608401528189013560808401529194506101a088013591808311156127d857600080fd5b50506127e6888289016125b8565b969995985093965092949392505050565b6000806040838503121561280a57600080fd5b82356128158161268b565b946020939093013593505050565b60006020828403121561283557600080fd5b81356125b18161268b565b6000806020838503121561285357600080fd5b823567ffffffffffffffff81111561286a57600080fd5b612876858286016125b8565b90969095509350505050565b60006020828403121561289457600080fd5b813567ffffffffffffffff8111156128ab57600080fd5b820161016081850312156125b157600080fd5b60008083601f8401126128d057600080fd5b50813567ffffffffffffffff8111156128e857600080fd5b6020830191508360208260051b85010111156125fa57600080fd5b60008060008060008060006080888a03121561291e57600080fd5b873567ffffffffffffffff8082111561293657600080fd5b6129428b838c016128be565b909950975060208a013591508082111561295b57600080fd5b6129678b838c016125b8565b909750955060408a013591508082111561298057600080fd5b5061298d8a828b016128be565b90945092505060608801356129a18161268b565b8091505092959891949750929550565b634e487b7160e01b600052601160045260246000fd5b80820180821115612228576122286129b1565b8183823760009101908152919050565b60005b83811015612a055781810151838201526020016129ed565b50506000910152565b60008151808452612a268160208601602086016129ea565b601f01601f19169290920160200192915050565b828152604060208201526000611bc66040830184612a0e565b81810381811115612228576122286129b1565b81835281816020850137506000828201602090810191909152601f909101601f19169091010190565b602081526000611bc6602083018486612a66565b600060208284031215612ab557600080fd5b81516125b18161268b565b67ffffffffffffffff818116838216019080821115612ae157612ae16129b1565b5092915050565b6000808335601e19843603018112612aff57600080fd5b83018035915067ffffffffffffffff821115612b1a57600080fd5b6020019150368190038213156125fa57600080fd5b60008085851115612b3f57600080fd5b83861115612b4c57600080fd5b5050820193919092039150565b6bffffffffffffffffffffffff198135818116916014851015612b865780818660140360031b1b83161692505b505092915050565b60e0808252855190820152602085015161010082015260408501511515610120820152606085015167ffffffffffffffff90811661014083015260808601511661016082015260a085015160c0610180830152600090612bf26101a0840182612a0e565b915050612c0c602083018680518252602090810151910152565b8351606083015260208401516080830152825160a0830152602083015160c08301526109ac565b634e487b7160e01b600052603260045260246000fd5b6000823561015e19833603018112612c6057600080fd5b9190910192915050565b634e487b7160e01b600052602160045260246000fd5b600060038510612ca057634e487b7160e01b600052602160045260246000fd5b84825260606020830152612cb76060830185612a0e565b9050826040830152949350505050565b600060033d1115612ce05760046000803e5060005160e01c5b90565b600060443d1015612cf15790565b6040516003193d81016004833e81513d67ffffffffffffffff8160248401118184111715612d2157505050505090565b8285019150815181811115612d395750505050505090565b843d8701016020828501011115612d535750505050505090565b612d626020828601018761265e565b509095945050505050565b8381526001600160a01b03831660208201526060604082015260006109ac6060830184612a0e565b60006101c0808352612daa8184018789612a66565b905084516001600160a01b03808251166020860152602082015160408601526040820151606086015260608201516080860152608082015160a08601528060a08301511660c08601525060c081015160e085015260e08101516101008501525060208501516101208401526040850151610140840152606085015161016084015260808501516101808401528281036101a0840152612e498185612a0e565b979650505050505050565b600060208284031215612e6657600080fd5b5051919050565b6000808335601e19843603018112612e8457600080fd5b830160208101925035905067ffffffffffffffff811115612ea457600080fd5b8036038213156125fa57600080fd5b6000610160612ed284612ec5856126a3565b6001600160a01b03169052565b60208301356020850152612ee96040840184612e6d565b826040870152612efc8387018284612a66565b92505050612f0d6060840184612e6d565b8583036060870152612f20838284612a66565b925050506080830135608085015260a083013560a085015260c083013560c085015260e083013560e0850152610100808401358186015250610120612f6781850185612e6d565b86840383880152612f79848284612a66565b9350505050610140612f8d81850185612e6d565b86840383880152612e49848284612a66565b604081526000612fb26040830185612eb3565b90508260208301529392505050565b606081526000612fd46060830186612eb3565b60208301949094525060400152919050565b60008060408385031215612ff957600080fd5b825167ffffffffffffffff8082111561301157600080fd5b818501915085601f83011261302557600080fd5b81518181111561303757613037612601565b6040519150613050601f8201601f19166020018361265e565b80825286602082850101111561306557600080fd5b6130768160208401602086016129ea565b50602094909401519395939450505050565b8181036000831280158383131683831282161715612ae157612ae16129b156fea164736f6c6343000811000a608060405234801561001057600080fd5b506101d7806100206000396000f3fe608060405234801561001057600080fd5b506004361061002b5760003560e01c8063570e1a3614610030575b600080fd5b61004361003e3660046100f9565b61006c565b60405173ffffffffffffffffffffffffffffffffffffffff909116815260200160405180910390f35b60008061007c601482858761016b565b61008591610195565b60601c90506000610099846014818861016b565b8080601f016020809104026020016040519081016040528093929190818152602001838380828437600092018290525084519495509360209350849250905082850182875af190506000519350806100f057600093505b50505092915050565b6000806020838503121561010c57600080fd5b823567ffffffffffffffff8082111561012457600080fd5b818501915085601f83011261013857600080fd5b81358181111561014757600080fd5b86602082850101111561015957600080fd5b60209290920196919550909350505050565b6000808585111561017b57600080fd5b8386111561018857600080fd5b5050820193919092039150565b6bffffffffffffffffffffffff1981358181169160148510156101c25780818660140360031b1b83161692505b50509291505056fea164736f6c6343000811000a",
  "linkReferences": {},
  "deployedLinkReferences": {}
}